{
  "contractName": "StudentAndSup",
  "abi": [
    {
      "inputs": [],
      "stateMutability": "nonpayable",
      "type": "constructor"
    },
    {
      "anonymous": false,
      "inputs": [
        {
          "indexed": true,
          "internalType": "address",
          "name": "previousOwner",
          "type": "address"
        },
        {
          "indexed": true,
          "internalType": "address",
          "name": "newOwner",
          "type": "address"
        }
      ],
      "name": "OwnershipTransferred",
      "type": "event"
    },
    {
      "inputs": [],
      "name": "owner",
      "outputs": [
        {
          "internalType": "address",
          "name": "",
          "type": "address"
        }
      ],
      "stateMutability": "view",
      "type": "function"
    },
    {
      "inputs": [],
      "name": "renounceOwnership",
      "outputs": [],
      "stateMutability": "nonpayable",
      "type": "function"
    },
    {
      "inputs": [
        {
          "internalType": "address",
          "name": "newOwner",
          "type": "address"
        }
      ],
      "name": "transferOwnership",
      "outputs": [],
      "stateMutability": "nonpayable",
      "type": "function"
    },
    {
      "inputs": [
        {
          "internalType": "address",
          "name": "supervisor",
          "type": "address"
        }
      ],
      "name": "createPotentialStudent",
      "outputs": [],
      "stateMutability": "nonpayable",
      "type": "function"
    },
    {
      "inputs": [
        {
          "internalType": "uint256",
          "name": "pendingStudentInd",
          "type": "uint256"
        }
      ],
      "name": "potentialSupApproveStudent",
      "outputs": [],
      "stateMutability": "nonpayable",
      "type": "function"
    },
    {
      "inputs": [],
      "name": "getSupsStudents",
      "outputs": [
        {
          "internalType": "address[]",
          "name": "",
          "type": "address[]"
        },
        {
          "internalType": "uint256[]",
          "name": "",
          "type": "uint256[]"
        }
      ],
      "stateMutability": "view",
      "type": "function"
    },
    {
      "inputs": [],
      "name": "getSupsPotentialStudents",
      "outputs": [
        {
          "internalType": "address[]",
          "name": "",
          "type": "address[]"
        },
        {
          "internalType": "uint256[]",
          "name": "",
          "type": "uint256[]"
        }
      ],
      "stateMutability": "view",
      "type": "function"
    }
  ],
  "bytecode": "0x608060405234801561001057600080fd5b5060006100216100c460201b60201c565b9050806000806101000a81548173ffffffffffffffffffffffffffffffffffffffff021916908373ffffffffffffffffffffffffffffffffffffffff1602179055508073ffffffffffffffffffffffffffffffffffffffff16600073ffffffffffffffffffffffffffffffffffffffff167f8be0079c531659141344cd1fd0a4f28419497f9722a3daafe3b4186f6b6457e060405160405180910390a3506100cc565b600033905090565b6112d3806100db6000396000f3fe608060405234801561001057600080fd5b506004361061007d5760003560e01c8063677125701161005b578063677125701461019b578063715018a6146102425780638da5cb5b1461024c578063f2fde38b146102805761007d565b80631e5792a0146100825780631e99dd47146100c65780632ce0ece6146100f4575b600080fd5b6100c46004803603602081101561009857600080fd5b81019080803573ffffffffffffffffffffffffffffffffffffffff1690602001909291905050506102c4565b005b6100f2600480360360208110156100dc57600080fd5b810190808035906020019092919050505061056d565b005b6100fc610579565b604051808060200180602001838103835285818151815260200191508051906020019060200280838360005b83811015610143578082015181840152602081019050610128565b50505050905001838103825284818151815260200191508051906020019060200280838360005b8381101561018557808201518184015260208101905061016a565b5050505090500194505050505060405180910390f35b6101a3610591565b604051808060200180602001838103835285818151815260200191508051906020019060200280838360005b838110156101ea5780820151818401526020810190506101cf565b50505050905001838103825284818151815260200191508051906020019060200280838360005b8381101561022c578082015181840152602081019050610211565b5050505090500194505050505060405180910390f35b61024a6105a9565b005b61025461072f565b604051808273ffffffffffffffffffffffffffffffffffffffff16815260200191505060405180910390f35b6102c26004803603602081101561029657600080fd5b81019080803573ffffffffffffffffffffffffffffffffffffffff169060200190929190505050610758565b005b60005b6002805490508110156103a4573373ffffffffffffffffffffffffffffffffffffffff16600282815481106102f857fe5b9060005260206000200160009054906101000a900473ffffffffffffffffffffffffffffffffffffffff1673ffffffffffffffffffffffffffffffffffffffff161415610397576000610396576040517f08c379a00000000000000000000000000000000000000000000000000000000081526004018080602001828103825260258152602001806111dc6025913960400191505060405180910390fd5b5b80806001019150506102c7565b50600073ffffffffffffffffffffffffffffffffffffffff16600460003373ffffffffffffffffffffffffffffffffffffffff1673ffffffffffffffffffffffffffffffffffffffff16815260200190815260200160002060009054906101000a900473ffffffffffffffffffffffffffffffffffffffff1673ffffffffffffffffffffffffffffffffffffffff1614610489576040517f08c379a000000000000000000000000000000000000000000000000000000000815260040180806020018281038252602881526020018061124c6028913960400191505060405180910390fd5b80600360003373ffffffffffffffffffffffffffffffffffffffff1673ffffffffffffffffffffffffffffffffffffffff16815260200190815260200160002060006101000a81548173ffffffffffffffffffffffffffffffffffffffff021916908373ffffffffffffffffffffffffffffffffffffffff1602179055506002339080600181540180825580915050600190039060005260206000200160009091909190916101000a81548173ffffffffffffffffffffffffffffffffffffffff021916908373ffffffffffffffffffffffffffffffffffffffff16021790555050565b61057681610963565b50565b6060806105896001600433610cc1565b915091509091565b6060806105a16002600333610cc1565b915091509091565b6105b1611007565b73ffffffffffffffffffffffffffffffffffffffff1660008054906101000a900473ffffffffffffffffffffffffffffffffffffffff1673ffffffffffffffffffffffffffffffffffffffff1614610671576040517f08c379a00000000000000000000000000000000000000000000000000000000081526004018080602001828103825260208152602001807f4f776e61626c653a2063616c6c6572206973206e6f7420746865206f776e657281525060200191505060405180910390fd5b600073ffffffffffffffffffffffffffffffffffffffff1660008054906101000a900473ffffffffffffffffffffffffffffffffffffffff1673ffffffffffffffffffffffffffffffffffffffff167f8be0079c531659141344cd1fd0a4f28419497f9722a3daafe3b4186f6b6457e060405160405180910390a360008060006101000a81548173ffffffffffffffffffffffffffffffffffffffff021916908373ffffffffffffffffffffffffffffffffffffffff160217905550565b60008060009054906101000a900473ffffffffffffffffffffffffffffffffffffffff16905090565b610760611007565b73ffffffffffffffffffffffffffffffffffffffff1660008054906101000a900473ffffffffffffffffffffffffffffffffffffffff1673ffffffffffffffffffffffffffffffffffffffff1614610820576040517f08c379a00000000000000000000000000000000000000000000000000000000081526004018080602001828103825260208152602001807f4f776e61626c653a2063616c6c6572206973206e6f7420746865206f776e657281525060200191505060405180910390fd5b600073ffffffffffffffffffffffffffffffffffffffff168173ffffffffffffffffffffffffffffffffffffffff1614156108a6576040517f08c379a00000000000000000000000000000000000000000000000000000000081526004018080602001828103825260268152602001806112016026913960400191505060405180910390fd5b8073ffffffffffffffffffffffffffffffffffffffff1660008054906101000a900473ffffffffffffffffffffffffffffffffffffffff1673ffffffffffffffffffffffffffffffffffffffff167f8be0079c531659141344cd1fd0a4f28419497f9722a3daafe3b4186f6b6457e060405160405180910390a3806000806101000a81548173ffffffffffffffffffffffffffffffffffffffff021916908373ffffffffffffffffffffffffffffffffffffffff16021790555050565b60006002828154811061097257fe5b9060005260206000200160009054906101000a900473ffffffffffffffffffffffffffffffffffffffff169050600073ffffffffffffffffffffffffffffffffffffffff16600460008373ffffffffffffffffffffffffffffffffffffffff1673ffffffffffffffffffffffffffffffffffffffff16815260200190815260200160002060009054906101000a900473ffffffffffffffffffffffffffffffffffffffff1673ffffffffffffffffffffffffffffffffffffffff1614610a83576040517f08c379a000000000000000000000000000000000000000000000000000000000815260040180806020018281038252602881526020018061124c6028913960400191505060405180910390fd5b3373ffffffffffffffffffffffffffffffffffffffff16600360008373ffffffffffffffffffffffffffffffffffffffff1673ffffffffffffffffffffffffffffffffffffffff16815260200190815260200160002060009054906101000a900473ffffffffffffffffffffffffffffffffffffffff1673ffffffffffffffffffffffffffffffffffffffff1614610b66576040517f08c379a00000000000000000000000000000000000000000000000000000000081526004018080602001828103825260258152602001806112276025913960400191505060405180910390fd5b33600460008373ffffffffffffffffffffffffffffffffffffffff1673ffffffffffffffffffffffffffffffffffffffff16815260200190815260200160002060006101000a81548173ffffffffffffffffffffffffffffffffffffffff021916908373ffffffffffffffffffffffffffffffffffffffff1602179055506001819080600181540180825580915050600190039060005260206000200160009091909190916101000a81548173ffffffffffffffffffffffffffffffffffffffff021916908373ffffffffffffffffffffffffffffffffffffffff160217905550610c5b82600261100f90919063ffffffff16565b600360008273ffffffffffffffffffffffffffffffffffffffff1673ffffffffffffffffffffffffffffffffffffffff16815260200190815260200160002060006101000a81549073ffffffffffffffffffffffffffffffffffffffff02191690555050565b6060806000805b8680549050811015610dd4576000878281548110610ce257fe5b9060005260206000200160009054906101000a900473ffffffffffffffffffffffffffffffffffffffff1690508573ffffffffffffffffffffffffffffffffffffffff168760008373ffffffffffffffffffffffffffffffffffffffff1673ffffffffffffffffffffffffffffffffffffffff16815260200190815260200160002060009054906101000a900473ffffffffffffffffffffffffffffffffffffffff1673ffffffffffffffffffffffffffffffffffffffff161415610db857610db560018461115390919063ffffffff16565b92505b50610dcd60018261115390919063ffffffff16565b9050610cc8565b5060608167ffffffffffffffff81118015610dee57600080fd5b50604051908082528060200260200182016040528015610e1d5781602001602082028036833780820191505090505b50905060608267ffffffffffffffff81118015610e3957600080fd5b50604051908082528060200260200182016040528015610e685781602001602082028036833780820191505090505b5090506000805b8980549050811015610ff35760008a8281548110610e8957fe5b9060005260206000200160009054906101000a900473ffffffffffffffffffffffffffffffffffffffff1690508873ffffffffffffffffffffffffffffffffffffffff168a60008373ffffffffffffffffffffffffffffffffffffffff1673ffffffffffffffffffffffffffffffffffffffff16815260200190815260200160002060009054906101000a900473ffffffffffffffffffffffffffffffffffffffff1673ffffffffffffffffffffffffffffffffffffffff161415610fd75780858481518110610f5557fe5b602002602001019073ffffffffffffffffffffffffffffffffffffffff16908173ffffffffffffffffffffffffffffffffffffffff168152505081848481518110610f9c57fe5b602002602001018181525050610fbc60018461115390919063ffffffff16565b9250828611610fd657848497509750505050505050610fff565b5b50610fec60018261115390919063ffffffff16565b9050610e6f565b50828295509550505050505b935093915050565b600033905090565b806000111580156110235750818054905081105b611078576040517f08c379a000000000000000000000000000000000000000000000000000000000815260040180806020018281038252602a815260200180611274602a913960400191505060405180910390fd5b60006001838054905003905082818154811061109057fe5b9060005260206000200160009054906101000a900473ffffffffffffffffffffffffffffffffffffffff168383815481106110c757fe5b9060005260206000200160006101000a81548173ffffffffffffffffffffffffffffffffffffffff021916908373ffffffffffffffffffffffffffffffffffffffff1602179055508280548061111957fe5b6001900381819060005260206000200160006101000a81549073ffffffffffffffffffffffffffffffffffffffff02191690559055505050565b6000808284019050838110156111d1576040517f08c379a000000000000000000000000000000000000000000000000000000000815260040180806020018281038252601b8152602001807f536166654d6174683a206164646974696f6e206f766572666c6f77000000000081525060200191505060405180910390fd5b809150509291505056fe53747564656e74206d757374206e6f7420626520612070656e64696e672073747564656e744f776e61626c653a206e6577206f776e657220697320746865207a65726f206164647265737353747564656e74206d75737420686176652073657420746869732073757065727669736f7253747564656e742063616e6e6f7420616c7265616479206861766520612073757065727669736f7254686520696e646578206d7573742062652077697468696e2072616e6765206f6620746865206c697374a26469706673582212208c61d8cfe116afdacd28ed61801bea5102f0c9872746c5aa56f2d49c9d6fe33b64736f6c63430007000033",
  "immutableReferences": {},
  "source": "pragma solidity ^0.7.0;\n\nimport \"@openzeppelin/contracts/math/SafeMath.sol\";\nimport \"@openzeppelin/contracts/access/Ownable.sol\";\nimport \"./utils/RArrAddress.sol\";\n\n/// @dev the contract for the interaction between the student and supervisor\ncontract StudentAndSup is Ownable {\n    using SafeMath for uint256;\n    using SafeMath for uint256;\n    using RArrAddress for address[];\n\n    ///@dev all initialized students\n    address[] private students;\n\n    ///@dev all pending students\n    address[] private pendingStudents;\n\n    ///@dev a mapping of potential students to potential supervisors who they approved\n    mapping(address => address) private pendingStudentToApprovedSup;\n\n    ///@dev all initialized students mapped to their supervisor.\n    mapping(address => address) private studentToSupervisor;\n\n    /// @dev check if an address is a student by checking if the address has a supervisor\n    modifier _is_student() {\n        require(studentToSupervisor[msg.sender] != address(0));\n        _;\n    }\n\n    modifier _is_not_pending() {\n        for (uint256 i = 0; i < pendingStudents.length; i++) {\n            if (pendingStudents[i] == msg.sender) {\n                require(false, \"Student must not be a pending student\");\n            }\n        }\n        _;\n    }\n\n    constructor() {}\n\n    /// @param supervisor - The student's desired supervisor\n    /// @dev msg.sender is the student's address\n    function createPotentialStudent(address supervisor)\n        external\n        _is_not_pending\n    {\n        require(\n            studentToSupervisor[msg.sender] == address(0),\n            \"Student cannot already have a supervisor\"\n        );\n        pendingStudentToApprovedSup[msg.sender] = supervisor;\n        pendingStudents.push(msg.sender);\n    }\n\n    function potentialSupApproveStudent(uint256 pendingStudentInd) external {\n        initStudent(pendingStudentInd);\n    }\n\n    /// @dev msg.sender is the supervisor\n    function initStudent(uint256 pendingStudentInd) private {\n        address student = pendingStudents[pendingStudentInd];\n        require(\n            studentToSupervisor[student] == address(0),\n            \"Student cannot already have a supervisor\"\n        );\n        require(\n            pendingStudentToApprovedSup[student] == msg.sender,\n            \"Student must have set this supervisor\"\n        );\n\n        studentToSupervisor[student] = msg.sender;\n        students.push(student);\n        pendingStudents.removeInd(pendingStudentInd);\n        delete pendingStudentToApprovedSup[student];\n    }\n\n    function getSupsStudents()\n        external\n        view\n        returns (address[] memory, uint256[] memory)\n    {\n        return getStudentsPerSup(students, studentToSupervisor, msg.sender);\n    }\n\n    function getSupsPotentialStudents()\n        external\n        view\n        returns (address[] memory, uint256[] memory)\n    {\n        return\n            getStudentsPerSup(\n                pendingStudents,\n                pendingStudentToApprovedSup,\n                msg.sender\n            );\n    }\n\n    function getStudentsPerSup(\n        address[] storage _students,\n        mapping(address => address) storage _studentToSup,\n        address supervisor\n    ) private view returns (address[] memory, uint256[] memory) {\n        uint256 count = 0;\n        for (uint256 i = 0; i < _students.length; i = i.add(1)) {\n            address student = _students[i];\n            if (_studentToSup[student] == supervisor) {\n                count = count.add(1);\n            }\n        }\n        address[] memory supsStudents = new address[](count);\n        uint256[] memory supsStudentsInds = new uint256[](count);\n\n        uint256 x = 0;\n        for (uint256 i = 0; i < _students.length; i = i.add(1)) {\n            address student = _students[i];\n            if (_studentToSup[student] == supervisor) {\n                supsStudents[x] = student;\n                supsStudentsInds[x] = i;\n                x = x.add(1);\n                // TODO: test the following!\n                // account for case where another student is added mid function call\n                if (count <= x) {\n                    return (supsStudents, supsStudentsInds);\n                }\n            }\n        }\n        return (supsStudents, supsStudentsInds);\n    }\n}\n",
  "sourcePath": "/home/lev/code/blockchain/eth/evie-timer/contracts/StudentAndSup.sol",
  "compiler": {
    "name": "solc",
    "version": "0.7.0+commit.9e61f92b.Emscripten.clang"
  },
  "schemaVersion": "3.3.3",
  "updatedAt": "2021-01-19T13:35:47.714Z",
  "devdoc": {
    "details": "the contract for the interaction between the student and supervisor",
    "kind": "dev",
    "methods": {
      "createPotentialStudent(address)": {
        "details": "msg.sender is the student's address",
        "params": {
          "supervisor": "- The student's desired supervisor"
        }
      },
      "owner()": {
        "details": "Returns the address of the current owner."
      },
      "renounceOwnership()": {
        "details": "Leaves the contract without owner. It will not be possible to call `onlyOwner` functions anymore. Can only be called by the current owner. NOTE: Renouncing ownership will leave the contract without an owner, thereby removing any functionality that is only available to the owner."
      },
      "transferOwnership(address)": {
        "details": "Transfers ownership of the contract to a new account (`newOwner`). Can only be called by the current owner."
      }
    },
    "stateVariables": {
      "pendingStudentToApprovedSup": {
        "details": "a mapping of potential students to potential supervisors who they approved"
      },
      "pendingStudents": {
        "details": "all pending students"
      },
      "studentToSupervisor": {
        "details": "all initialized students mapped to their supervisor."
      },
      "students": {
        "details": "all initialized students"
      }
    },
    "version": 1
  },
  "userdoc": {
    "kind": "user",
    "methods": {},
    "version": 1
  }
}