{
  "contractName": "StudentAndSup",
  "abi": [
    {
      "inputs": [],
      "stateMutability": "nonpayable",
      "type": "constructor"
    },
    {
      "anonymous": false,
      "inputs": [
        {
          "indexed": true,
          "internalType": "address",
          "name": "previousOwner",
          "type": "address"
        },
        {
          "indexed": true,
          "internalType": "address",
          "name": "newOwner",
          "type": "address"
        }
      ],
      "name": "OwnershipTransferred",
      "type": "event"
    },
    {
      "inputs": [],
      "name": "owner",
      "outputs": [
        {
          "internalType": "address",
          "name": "",
          "type": "address"
        }
      ],
      "stateMutability": "view",
      "type": "function"
    },
    {
      "inputs": [],
      "name": "renounceOwnership",
      "outputs": [],
      "stateMutability": "nonpayable",
      "type": "function"
    },
    {
      "inputs": [
        {
          "internalType": "address",
          "name": "newOwner",
          "type": "address"
        }
      ],
      "name": "transferOwnership",
      "outputs": [],
      "stateMutability": "nonpayable",
      "type": "function"
    },
    {
      "inputs": [
        {
          "internalType": "address",
          "name": "student",
          "type": "address"
        }
      ],
      "name": "studentStatus",
      "outputs": [
        {
          "internalType": "enum StudentAndSup.StudentType",
          "name": "",
          "type": "uint8"
        }
      ],
      "stateMutability": "view",
      "type": "function"
    },
    {
      "inputs": [
        {
          "internalType": "address",
          "name": "supervisor",
          "type": "address"
        }
      ],
      "name": "createPotentialStudent",
      "outputs": [],
      "stateMutability": "nonpayable",
      "type": "function"
    },
    {
      "inputs": [
        {
          "internalType": "uint256",
          "name": "pendingStudentInd",
          "type": "uint256"
        }
      ],
      "name": "potentialSupApproveStudent",
      "outputs": [],
      "stateMutability": "nonpayable",
      "type": "function"
    },
    {
      "inputs": [],
      "name": "getSupsStudents",
      "outputs": [
        {
          "internalType": "address[]",
          "name": "",
          "type": "address[]"
        },
        {
          "internalType": "uint256[]",
          "name": "",
          "type": "uint256[]"
        }
      ],
      "stateMutability": "view",
      "type": "function"
    },
    {
      "inputs": [],
      "name": "getSupsPotentialStudents",
      "outputs": [
        {
          "internalType": "address[]",
          "name": "",
          "type": "address[]"
        },
        {
          "internalType": "uint256[]",
          "name": "",
          "type": "uint256[]"
        }
      ],
      "stateMutability": "view",
      "type": "function"
    }
  ],
  "bytecode": "0x608060405234801561001057600080fd5b5060006100216100c460201b60201c565b9050806000806101000a81548173ffffffffffffffffffffffffffffffffffffffff021916908373ffffffffffffffffffffffffffffffffffffffff1602179055508073ffffffffffffffffffffffffffffffffffffffff16600073ffffffffffffffffffffffffffffffffffffffff167f8be0079c531659141344cd1fd0a4f28419497f9722a3daafe3b4186f6b6457e060405160405180910390a3506100cc565b600033905090565b611484806100db6000396000f3fe608060405234801561001057600080fd5b50600436106100885760003560e01c8063677125701161005b5780636771257014610209578063715018a6146102b05780638da5cb5b146102ba578063f2fde38b146102ee57610088565b8063097b009a1461008d5780631e5792a0146100f05780631e99dd47146101345780632ce0ece614610162575b600080fd5b6100cf600480360360208110156100a357600080fd5b81019080803573ffffffffffffffffffffffffffffffffffffffff169060200190929190505050610332565b604051808260028111156100df57fe5b815260200191505060405180910390f35b6101326004803603602081101561010657600080fd5b81019080803573ffffffffffffffffffffffffffffffffffffffff169060200190929190505050610475565b005b6101606004803603602081101561014a57600080fd5b810190808035906020019092919050505061071e565b005b61016a61072a565b604051808060200180602001838103835285818151815260200191508051906020019060200280838360005b838110156101b1578082015181840152602081019050610196565b50505050905001838103825284818151815260200191508051906020019060200280838360005b838110156101f35780820151818401526020810190506101d8565b5050505090500194505050505060405180910390f35b610211610742565b604051808060200180602001838103835285818151815260200191508051906020019060200280838360005b8381101561025857808201518184015260208101905061023d565b50505050905001838103825284818151815260200191508051906020019060200280838360005b8381101561029a57808201518184015260208101905061027f565b5050505090500194505050505060405180910390f35b6102b861075a565b005b6102c26108e0565b604051808273ffffffffffffffffffffffffffffffffffffffff16815260200191505060405180910390f35b6103306004803603602081101561030457600080fd5b81019080803573ffffffffffffffffffffffffffffffffffffffff169060200190929190505050610909565b005b60008073ffffffffffffffffffffffffffffffffffffffff16600460008473ffffffffffffffffffffffffffffffffffffffff1673ffffffffffffffffffffffffffffffffffffffff16815260200190815260200160002060009054906101000a900473ffffffffffffffffffffffffffffffffffffffff1673ffffffffffffffffffffffffffffffffffffffff16146103cf5760009050610470565b600073ffffffffffffffffffffffffffffffffffffffff16600360008473ffffffffffffffffffffffffffffffffffffffff1673ffffffffffffffffffffffffffffffffffffffff16815260200190815260200160002060009054906101000a900473ffffffffffffffffffffffffffffffffffffffff1673ffffffffffffffffffffffffffffffffffffffff161461046b5760019050610470565b600290505b919050565b60005b600280549050811015610555573373ffffffffffffffffffffffffffffffffffffffff16600282815481106104a957fe5b9060005260206000200160009054906101000a900473ffffffffffffffffffffffffffffffffffffffff1673ffffffffffffffffffffffffffffffffffffffff161415610548576000610547576040517f08c379a000000000000000000000000000000000000000000000000000000000815260040180806020018281038252602581526020018061138d6025913960400191505060405180910390fd5b5b8080600101915050610478565b50600073ffffffffffffffffffffffffffffffffffffffff16600460003373ffffffffffffffffffffffffffffffffffffffff1673ffffffffffffffffffffffffffffffffffffffff16815260200190815260200160002060009054906101000a900473ffffffffffffffffffffffffffffffffffffffff1673ffffffffffffffffffffffffffffffffffffffff161461063a576040517f08c379a00000000000000000000000000000000000000000000000000000000081526004018080602001828103825260288152602001806113fd6028913960400191505060405180910390fd5b80600360003373ffffffffffffffffffffffffffffffffffffffff1673ffffffffffffffffffffffffffffffffffffffff16815260200190815260200160002060006101000a81548173ffffffffffffffffffffffffffffffffffffffff021916908373ffffffffffffffffffffffffffffffffffffffff1602179055506002339080600181540180825580915050600190039060005260206000200160009091909190916101000a81548173ffffffffffffffffffffffffffffffffffffffff021916908373ffffffffffffffffffffffffffffffffffffffff16021790555050565b61072781610b14565b50565b60608061073a6001600433610e72565b915091509091565b6060806107526002600333610e72565b915091509091565b6107626111b8565b73ffffffffffffffffffffffffffffffffffffffff1660008054906101000a900473ffffffffffffffffffffffffffffffffffffffff1673ffffffffffffffffffffffffffffffffffffffff1614610822576040517f08c379a00000000000000000000000000000000000000000000000000000000081526004018080602001828103825260208152602001807f4f776e61626c653a2063616c6c6572206973206e6f7420746865206f776e657281525060200191505060405180910390fd5b600073ffffffffffffffffffffffffffffffffffffffff1660008054906101000a900473ffffffffffffffffffffffffffffffffffffffff1673ffffffffffffffffffffffffffffffffffffffff167f8be0079c531659141344cd1fd0a4f28419497f9722a3daafe3b4186f6b6457e060405160405180910390a360008060006101000a81548173ffffffffffffffffffffffffffffffffffffffff021916908373ffffffffffffffffffffffffffffffffffffffff160217905550565b60008060009054906101000a900473ffffffffffffffffffffffffffffffffffffffff16905090565b6109116111b8565b73ffffffffffffffffffffffffffffffffffffffff1660008054906101000a900473ffffffffffffffffffffffffffffffffffffffff1673ffffffffffffffffffffffffffffffffffffffff16146109d1576040517f08c379a00000000000000000000000000000000000000000000000000000000081526004018080602001828103825260208152602001807f4f776e61626c653a2063616c6c6572206973206e6f7420746865206f776e657281525060200191505060405180910390fd5b600073ffffffffffffffffffffffffffffffffffffffff168173ffffffffffffffffffffffffffffffffffffffff161415610a57576040517f08c379a00000000000000000000000000000000000000000000000000000000081526004018080602001828103825260268152602001806113b26026913960400191505060405180910390fd5b8073ffffffffffffffffffffffffffffffffffffffff1660008054906101000a900473ffffffffffffffffffffffffffffffffffffffff1673ffffffffffffffffffffffffffffffffffffffff167f8be0079c531659141344cd1fd0a4f28419497f9722a3daafe3b4186f6b6457e060405160405180910390a3806000806101000a81548173ffffffffffffffffffffffffffffffffffffffff021916908373ffffffffffffffffffffffffffffffffffffffff16021790555050565b600060028281548110610b2357fe5b9060005260206000200160009054906101000a900473ffffffffffffffffffffffffffffffffffffffff169050600073ffffffffffffffffffffffffffffffffffffffff16600460008373ffffffffffffffffffffffffffffffffffffffff1673ffffffffffffffffffffffffffffffffffffffff16815260200190815260200160002060009054906101000a900473ffffffffffffffffffffffffffffffffffffffff1673ffffffffffffffffffffffffffffffffffffffff1614610c34576040517f08c379a00000000000000000000000000000000000000000000000000000000081526004018080602001828103825260288152602001806113fd6028913960400191505060405180910390fd5b3373ffffffffffffffffffffffffffffffffffffffff16600360008373ffffffffffffffffffffffffffffffffffffffff1673ffffffffffffffffffffffffffffffffffffffff16815260200190815260200160002060009054906101000a900473ffffffffffffffffffffffffffffffffffffffff1673ffffffffffffffffffffffffffffffffffffffff1614610d17576040517f08c379a00000000000000000000000000000000000000000000000000000000081526004018080602001828103825260258152602001806113d86025913960400191505060405180910390fd5b33600460008373ffffffffffffffffffffffffffffffffffffffff1673ffffffffffffffffffffffffffffffffffffffff16815260200190815260200160002060006101000a81548173ffffffffffffffffffffffffffffffffffffffff021916908373ffffffffffffffffffffffffffffffffffffffff1602179055506001819080600181540180825580915050600190039060005260206000200160009091909190916101000a81548173ffffffffffffffffffffffffffffffffffffffff021916908373ffffffffffffffffffffffffffffffffffffffff160217905550610e0c8260026111c090919063ffffffff16565b600360008273ffffffffffffffffffffffffffffffffffffffff1673ffffffffffffffffffffffffffffffffffffffff16815260200190815260200160002060006101000a81549073ffffffffffffffffffffffffffffffffffffffff02191690555050565b6060806000805b8680549050811015610f85576000878281548110610e9357fe5b9060005260206000200160009054906101000a900473ffffffffffffffffffffffffffffffffffffffff1690508573ffffffffffffffffffffffffffffffffffffffff168760008373ffffffffffffffffffffffffffffffffffffffff1673ffffffffffffffffffffffffffffffffffffffff16815260200190815260200160002060009054906101000a900473ffffffffffffffffffffffffffffffffffffffff1673ffffffffffffffffffffffffffffffffffffffff161415610f6957610f6660018461130490919063ffffffff16565b92505b50610f7e60018261130490919063ffffffff16565b9050610e79565b5060608167ffffffffffffffff81118015610f9f57600080fd5b50604051908082528060200260200182016040528015610fce5781602001602082028036833780820191505090505b50905060608267ffffffffffffffff81118015610fea57600080fd5b506040519080825280602002602001820160405280156110195781602001602082028036833780820191505090505b5090506000805b89805490508110156111a45760008a828154811061103a57fe5b9060005260206000200160009054906101000a900473ffffffffffffffffffffffffffffffffffffffff1690508873ffffffffffffffffffffffffffffffffffffffff168a60008373ffffffffffffffffffffffffffffffffffffffff1673ffffffffffffffffffffffffffffffffffffffff16815260200190815260200160002060009054906101000a900473ffffffffffffffffffffffffffffffffffffffff1673ffffffffffffffffffffffffffffffffffffffff161415611188578085848151811061110657fe5b602002602001019073ffffffffffffffffffffffffffffffffffffffff16908173ffffffffffffffffffffffffffffffffffffffff16815250508184848151811061114d57fe5b60200260200101818152505061116d60018461130490919063ffffffff16565b9250828611611187578484975097505050505050506111b0565b5b5061119d60018261130490919063ffffffff16565b9050611020565b50828295509550505050505b935093915050565b600033905090565b806000111580156111d45750818054905081105b611229576040517f08c379a000000000000000000000000000000000000000000000000000000000815260040180806020018281038252602a815260200180611425602a913960400191505060405180910390fd5b60006001838054905003905082818154811061124157fe5b9060005260206000200160009054906101000a900473ffffffffffffffffffffffffffffffffffffffff1683838154811061127857fe5b9060005260206000200160006101000a81548173ffffffffffffffffffffffffffffffffffffffff021916908373ffffffffffffffffffffffffffffffffffffffff160217905550828054806112ca57fe5b6001900381819060005260206000200160006101000a81549073ffffffffffffffffffffffffffffffffffffffff02191690559055505050565b600080828401905083811015611382576040517f08c379a000000000000000000000000000000000000000000000000000000000815260040180806020018281038252601b8152602001807f536166654d6174683a206164646974696f6e206f766572666c6f77000000000081525060200191505060405180910390fd5b809150509291505056fe53747564656e74206d757374206e6f7420626520612070656e64696e672073747564656e744f776e61626c653a206e6577206f776e657220697320746865207a65726f206164647265737353747564656e74206d75737420686176652073657420746869732073757065727669736f7253747564656e742063616e6e6f7420616c7265616479206861766520612073757065727669736f7254686520696e646578206d7573742062652077697468696e2072616e6765206f6620746865206c697374a26469706673582212203125a17e962855b11175a85a51a119bb52fa3ebd3fdcfe324f1265f873355ff664736f6c63430007000033",
  "immutableReferences": {},
  "source": "pragma solidity ^0.7.0;\n\nimport \"@openzeppelin/contracts/math/SafeMath.sol\";\nimport \"@openzeppelin/contracts/access/Ownable.sol\";\nimport \"./utils/RArrAddress.sol\";\n\n/// @dev the contract for the interaction between the student and supervisor\ncontract StudentAndSup is Ownable {\n    using SafeMath for uint256;\n    using SafeMath for uint256;\n    using RArrAddress for address[];\n\n    enum StudentType {\n        FullStudent,\n        PendingStudent,\n        None\n    }\n\n    ///@dev all initialized students\n    address[] private students;\n\n    ///@dev all pending students\n    address[] private pendingStudents;\n\n    ///@dev a mapping of potential students to potential supervisors who they approved\n    mapping(address => address) private pendingStudentToApprovedSup;\n\n    ///@dev all initialized students mapped to their supervisor.\n    mapping(address => address) private studentToSupervisor;\n\n    /// @dev check if an address is a student by checking if the address has a supervisor\n    modifier _is_student() {\n        require(studentToSupervisor[msg.sender] != address(0));\n        _;\n    }\n\n    modifier _is_not_pending() {\n        for (uint256 i = 0; i < pendingStudents.length; i++) {\n            if (pendingStudents[i] == msg.sender) {\n                require(false, \"Student must not be a pending student\");\n            }\n        }\n        _;\n    }\n\n    constructor() {}\n\n    /// @dev get whether the student is a pending potential student, initialized, or nothing at all \n    function studentStatus(address student) view public returns(StudentType) {\n        if (studentToSupervisor[student] != address(0)) {\n            return StudentType.FullStudent;\n        } else if (pendingStudentToApprovedSup[student] != address(0)) {\n            return StudentType.PendingStudent;\n        } else {\n            return StudentType.None;\n        }\n    }\n\n    /// @param supervisor - The student's desired supervisor\n    /// @dev msg.sender is the student's address\n    function createPotentialStudent(address supervisor)\n        external\n        _is_not_pending\n    {\n        require(\n            studentToSupervisor[msg.sender] == address(0),\n            \"Student cannot already have a supervisor\"\n        );\n        pendingStudentToApprovedSup[msg.sender] = supervisor;\n        pendingStudents.push(msg.sender);\n    }\n\n    function potentialSupApproveStudent(uint256 pendingStudentInd) external {\n        initStudent(pendingStudentInd);\n    }\n\n    /// @dev msg.sender is the supervisor\n    function initStudent(uint256 pendingStudentInd) private {\n        address student = pendingStudents[pendingStudentInd];\n        require(\n            studentToSupervisor[student] == address(0),\n            \"Student cannot already have a supervisor\"\n        );\n        require(\n            pendingStudentToApprovedSup[student] == msg.sender,\n            \"Student must have set this supervisor\"\n        );\n\n        studentToSupervisor[student] = msg.sender;\n        students.push(student);\n        pendingStudents.removeInd(pendingStudentInd);\n        delete pendingStudentToApprovedSup[student];\n    }\n\n    function getSupsStudents()\n        external\n        view\n        returns (address[] memory, uint256[] memory)\n    {\n        return getStudentsPerSup(students, studentToSupervisor, msg.sender);\n    }\n\n    function getSupsPotentialStudents()\n        external\n        view\n        returns (address[] memory, uint256[] memory)\n    {\n        return\n            getStudentsPerSup(\n                pendingStudents,\n                pendingStudentToApprovedSup,\n                msg.sender\n            );\n    }\n\n    function getStudentsPerSup(\n        address[] storage _students,\n        mapping(address => address) storage _studentToSup,\n        address supervisor\n    ) private view returns (address[] memory, uint256[] memory) {\n        uint256 count = 0;\n        for (uint256 i = 0; i < _students.length; i = i.add(1)) {\n            address student = _students[i];\n            if (_studentToSup[student] == supervisor) {\n                count = count.add(1);\n            }\n        }\n        address[] memory supsStudents = new address[](count);\n        uint256[] memory supsStudentsInds = new uint256[](count);\n\n        uint256 x = 0;\n        for (uint256 i = 0; i < _students.length; i = i.add(1)) {\n            address student = _students[i];\n            if (_studentToSup[student] == supervisor) {\n                supsStudents[x] = student;\n                supsStudentsInds[x] = i;\n                x = x.add(1);\n                // TODO: test the following!\n                // account for case where another student is added mid function call\n                if (count <= x) {\n                    return (supsStudents, supsStudentsInds);\n                }\n            }\n        }\n        return (supsStudents, supsStudentsInds);\n    }\n}\n",
  "sourcePath": "/home/lev/code/blockchain/eth/evie-timer/contracts/StudentAndSup.sol",
  "compiler": {
    "name": "solc",
    "version": "0.7.0+commit.9e61f92b.Emscripten.clang"
  },
  "schemaVersion": "3.3.3",
  "updatedAt": "2021-01-19T15:23:09.274Z",
  "devdoc": {
    "details": "the contract for the interaction between the student and supervisor",
    "kind": "dev",
    "methods": {
      "createPotentialStudent(address)": {
        "details": "msg.sender is the student's address",
        "params": {
          "supervisor": "- The student's desired supervisor"
        }
      },
      "owner()": {
        "details": "Returns the address of the current owner."
      },
      "renounceOwnership()": {
        "details": "Leaves the contract without owner. It will not be possible to call `onlyOwner` functions anymore. Can only be called by the current owner. NOTE: Renouncing ownership will leave the contract without an owner, thereby removing any functionality that is only available to the owner."
      },
      "studentStatus(address)": {
        "details": "get whether the student is a pending potential student, initialized, or nothing at all "
      },
      "transferOwnership(address)": {
        "details": "Transfers ownership of the contract to a new account (`newOwner`). Can only be called by the current owner."
      }
    },
    "stateVariables": {
      "pendingStudentToApprovedSup": {
        "details": "a mapping of potential students to potential supervisors who they approved"
      },
      "pendingStudents": {
        "details": "all pending students"
      },
      "studentToSupervisor": {
        "details": "all initialized students mapped to their supervisor."
      },
      "students": {
        "details": "all initialized students"
      }
    },
    "version": 1
  },
  "userdoc": {
    "kind": "user",
    "methods": {},
    "version": 1
  }
}