{
  "contractName": "StudentAndSup",
  "abi": [
    {
      "inputs": [],
      "stateMutability": "nonpayable",
      "type": "constructor"
    },
    {
      "anonymous": false,
      "inputs": [
        {
          "indexed": true,
          "internalType": "address",
          "name": "previousOwner",
          "type": "address"
        },
        {
          "indexed": true,
          "internalType": "address",
          "name": "newOwner",
          "type": "address"
        }
      ],
      "name": "OwnershipTransferred",
      "type": "event"
    },
    {
      "inputs": [],
      "name": "owner",
      "outputs": [
        {
          "internalType": "address",
          "name": "",
          "type": "address"
        }
      ],
      "stateMutability": "view",
      "type": "function"
    },
    {
      "inputs": [],
      "name": "renounceOwnership",
      "outputs": [],
      "stateMutability": "nonpayable",
      "type": "function"
    },
    {
      "inputs": [
        {
          "internalType": "address",
          "name": "newOwner",
          "type": "address"
        }
      ],
      "name": "transferOwnership",
      "outputs": [],
      "stateMutability": "nonpayable",
      "type": "function"
    },
    {
      "inputs": [],
      "name": "studentStatus",
      "outputs": [
        {
          "internalType": "enum StudentAndSup.StudentType",
          "name": "",
          "type": "uint8"
        }
      ],
      "stateMutability": "view",
      "type": "function"
    },
    {
      "inputs": [
        {
          "internalType": "address",
          "name": "supervisor",
          "type": "address"
        }
      ],
      "name": "createPotentialStudent",
      "outputs": [],
      "stateMutability": "nonpayable",
      "type": "function"
    },
    {
      "inputs": [
        {
          "internalType": "uint256",
          "name": "pendingStudentInd",
          "type": "uint256"
        }
      ],
      "name": "potentialSupApproveStudent",
      "outputs": [],
      "stateMutability": "nonpayable",
      "type": "function"
    },
    {
      "inputs": [],
      "name": "getSupsStudents",
      "outputs": [
        {
          "internalType": "address[]",
          "name": "",
          "type": "address[]"
        },
        {
          "internalType": "uint256[]",
          "name": "",
          "type": "uint256[]"
        }
      ],
      "stateMutability": "view",
      "type": "function"
    },
    {
      "inputs": [],
      "name": "getSupsPotentialStudents",
      "outputs": [
        {
          "internalType": "address[]",
          "name": "",
          "type": "address[]"
        },
        {
          "internalType": "uint256[]",
          "name": "",
          "type": "uint256[]"
        }
      ],
      "stateMutability": "view",
      "type": "function"
    }
  ],
  "bytecode": "0x608060405234801561001057600080fd5b5060006100216100c460201b60201c565b9050806000806101000a81548173ffffffffffffffffffffffffffffffffffffffff021916908373ffffffffffffffffffffffffffffffffffffffff1602179055508073ffffffffffffffffffffffffffffffffffffffff16600073ffffffffffffffffffffffffffffffffffffffff167f8be0079c531659141344cd1fd0a4f28419497f9722a3daafe3b4186f6b6457e060405160405180910390a3506100cc565b600033905090565b611448806100db6000396000f3fe608060405234801561001057600080fd5b50600436106100885760003560e01c8063715018a61161005b578063715018a61461024d5780638da5cb5b14610257578063f2fde38b1461028b578063fa06524b146102cf57610088565b80631e5792a01461008d5780631e99dd47146100d15780632ce0ece6146100ff57806367712570146101a6575b600080fd5b6100cf600480360360208110156100a357600080fd5b81019080803573ffffffffffffffffffffffffffffffffffffffff1690602001909291905050506102f8565b005b6100fd600480360360208110156100e757600080fd5b81019080803590602001909291905050506105a1565b005b6101076105ad565b604051808060200180602001838103835285818151815260200191508051906020019060200280838360005b8381101561014e578082015181840152602081019050610133565b50505050905001838103825284818151815260200191508051906020019060200280838360005b83811015610190578082015181840152602081019050610175565b5050505090500194505050505060405180910390f35b6101ae6105c5565b604051808060200180602001838103835285818151815260200191508051906020019060200280838360005b838110156101f55780820151818401526020810190506101da565b50505050905001838103825284818151815260200191508051906020019060200280838360005b8381101561023757808201518184015260208101905061021c565b5050505090500194505050505060405180910390f35b6102556105dd565b005b61025f610763565b604051808273ffffffffffffffffffffffffffffffffffffffff16815260200191505060405180910390f35b6102cd600480360360208110156102a157600080fd5b81019080803573ffffffffffffffffffffffffffffffffffffffff16906020019092919050505061078c565b005b6102d7610997565b604051808260028111156102e757fe5b815260200191505060405180910390f35b60005b6002805490508110156103d8573373ffffffffffffffffffffffffffffffffffffffff166002828154811061032c57fe5b9060005260206000200160009054906101000a900473ffffffffffffffffffffffffffffffffffffffff1673ffffffffffffffffffffffffffffffffffffffff1614156103cb5760006103ca576040517f08c379a00000000000000000000000000000000000000000000000000000000081526004018080602001828103825260258152602001806113516025913960400191505060405180910390fd5b5b80806001019150506102fb565b50600073ffffffffffffffffffffffffffffffffffffffff16600460003373ffffffffffffffffffffffffffffffffffffffff1673ffffffffffffffffffffffffffffffffffffffff16815260200190815260200160002060009054906101000a900473ffffffffffffffffffffffffffffffffffffffff1673ffffffffffffffffffffffffffffffffffffffff16146104bd576040517f08c379a00000000000000000000000000000000000000000000000000000000081526004018080602001828103825260288152602001806113c16028913960400191505060405180910390fd5b80600360003373ffffffffffffffffffffffffffffffffffffffff1673ffffffffffffffffffffffffffffffffffffffff16815260200190815260200160002060006101000a81548173ffffffffffffffffffffffffffffffffffffffff021916908373ffffffffffffffffffffffffffffffffffffffff1602179055506002339080600181540180825580915050600190039060005260206000200160009091909190916101000a81548173ffffffffffffffffffffffffffffffffffffffff021916908373ffffffffffffffffffffffffffffffffffffffff16021790555050565b6105aa81610ad8565b50565b6060806105bd6001600433610e36565b915091509091565b6060806105d56002600333610e36565b915091509091565b6105e561117c565b73ffffffffffffffffffffffffffffffffffffffff1660008054906101000a900473ffffffffffffffffffffffffffffffffffffffff1673ffffffffffffffffffffffffffffffffffffffff16146106a5576040517f08c379a00000000000000000000000000000000000000000000000000000000081526004018080602001828103825260208152602001807f4f776e61626c653a2063616c6c6572206973206e6f7420746865206f776e657281525060200191505060405180910390fd5b600073ffffffffffffffffffffffffffffffffffffffff1660008054906101000a900473ffffffffffffffffffffffffffffffffffffffff1673ffffffffffffffffffffffffffffffffffffffff167f8be0079c531659141344cd1fd0a4f28419497f9722a3daafe3b4186f6b6457e060405160405180910390a360008060006101000a81548173ffffffffffffffffffffffffffffffffffffffff021916908373ffffffffffffffffffffffffffffffffffffffff160217905550565b60008060009054906101000a900473ffffffffffffffffffffffffffffffffffffffff16905090565b61079461117c565b73ffffffffffffffffffffffffffffffffffffffff1660008054906101000a900473ffffffffffffffffffffffffffffffffffffffff1673ffffffffffffffffffffffffffffffffffffffff1614610854576040517f08c379a00000000000000000000000000000000000000000000000000000000081526004018080602001828103825260208152602001807f4f776e61626c653a2063616c6c6572206973206e6f7420746865206f776e657281525060200191505060405180910390fd5b600073ffffffffffffffffffffffffffffffffffffffff168173ffffffffffffffffffffffffffffffffffffffff1614156108da576040517f08c379a00000000000000000000000000000000000000000000000000000000081526004018080602001828103825260268152602001806113766026913960400191505060405180910390fd5b8073ffffffffffffffffffffffffffffffffffffffff1660008054906101000a900473ffffffffffffffffffffffffffffffffffffffff1673ffffffffffffffffffffffffffffffffffffffff167f8be0079c531659141344cd1fd0a4f28419497f9722a3daafe3b4186f6b6457e060405160405180910390a3806000806101000a81548173ffffffffffffffffffffffffffffffffffffffff021916908373ffffffffffffffffffffffffffffffffffffffff16021790555050565b60008073ffffffffffffffffffffffffffffffffffffffff16600460003373ffffffffffffffffffffffffffffffffffffffff1673ffffffffffffffffffffffffffffffffffffffff16815260200190815260200160002060009054906101000a900473ffffffffffffffffffffffffffffffffffffffff1673ffffffffffffffffffffffffffffffffffffffff1614610a345760009050610ad5565b600073ffffffffffffffffffffffffffffffffffffffff16600360003373ffffffffffffffffffffffffffffffffffffffff1673ffffffffffffffffffffffffffffffffffffffff16815260200190815260200160002060009054906101000a900473ffffffffffffffffffffffffffffffffffffffff1673ffffffffffffffffffffffffffffffffffffffff1614610ad05760019050610ad5565b600290505b90565b600060028281548110610ae757fe5b9060005260206000200160009054906101000a900473ffffffffffffffffffffffffffffffffffffffff169050600073ffffffffffffffffffffffffffffffffffffffff16600460008373ffffffffffffffffffffffffffffffffffffffff1673ffffffffffffffffffffffffffffffffffffffff16815260200190815260200160002060009054906101000a900473ffffffffffffffffffffffffffffffffffffffff1673ffffffffffffffffffffffffffffffffffffffff1614610bf8576040517f08c379a00000000000000000000000000000000000000000000000000000000081526004018080602001828103825260288152602001806113c16028913960400191505060405180910390fd5b3373ffffffffffffffffffffffffffffffffffffffff16600360008373ffffffffffffffffffffffffffffffffffffffff1673ffffffffffffffffffffffffffffffffffffffff16815260200190815260200160002060009054906101000a900473ffffffffffffffffffffffffffffffffffffffff1673ffffffffffffffffffffffffffffffffffffffff1614610cdb576040517f08c379a000000000000000000000000000000000000000000000000000000000815260040180806020018281038252602581526020018061139c6025913960400191505060405180910390fd5b33600460008373ffffffffffffffffffffffffffffffffffffffff1673ffffffffffffffffffffffffffffffffffffffff16815260200190815260200160002060006101000a81548173ffffffffffffffffffffffffffffffffffffffff021916908373ffffffffffffffffffffffffffffffffffffffff1602179055506001819080600181540180825580915050600190039060005260206000200160009091909190916101000a81548173ffffffffffffffffffffffffffffffffffffffff021916908373ffffffffffffffffffffffffffffffffffffffff160217905550610dd082600261118490919063ffffffff16565b600360008273ffffffffffffffffffffffffffffffffffffffff1673ffffffffffffffffffffffffffffffffffffffff16815260200190815260200160002060006101000a81549073ffffffffffffffffffffffffffffffffffffffff02191690555050565b6060806000805b8680549050811015610f49576000878281548110610e5757fe5b9060005260206000200160009054906101000a900473ffffffffffffffffffffffffffffffffffffffff1690508573ffffffffffffffffffffffffffffffffffffffff168760008373ffffffffffffffffffffffffffffffffffffffff1673ffffffffffffffffffffffffffffffffffffffff16815260200190815260200160002060009054906101000a900473ffffffffffffffffffffffffffffffffffffffff1673ffffffffffffffffffffffffffffffffffffffff161415610f2d57610f2a6001846112c890919063ffffffff16565b92505b50610f426001826112c890919063ffffffff16565b9050610e3d565b5060608167ffffffffffffffff81118015610f6357600080fd5b50604051908082528060200260200182016040528015610f925781602001602082028036833780820191505090505b50905060608267ffffffffffffffff81118015610fae57600080fd5b50604051908082528060200260200182016040528015610fdd5781602001602082028036833780820191505090505b5090506000805b89805490508110156111685760008a8281548110610ffe57fe5b9060005260206000200160009054906101000a900473ffffffffffffffffffffffffffffffffffffffff1690508873ffffffffffffffffffffffffffffffffffffffff168a60008373ffffffffffffffffffffffffffffffffffffffff1673ffffffffffffffffffffffffffffffffffffffff16815260200190815260200160002060009054906101000a900473ffffffffffffffffffffffffffffffffffffffff1673ffffffffffffffffffffffffffffffffffffffff16141561114c57808584815181106110ca57fe5b602002602001019073ffffffffffffffffffffffffffffffffffffffff16908173ffffffffffffffffffffffffffffffffffffffff16815250508184848151811061111157fe5b6020026020010181815250506111316001846112c890919063ffffffff16565b925082861161114b57848497509750505050505050611174565b5b506111616001826112c890919063ffffffff16565b9050610fe4565b50828295509550505050505b935093915050565b600033905090565b806000111580156111985750818054905081105b6111ed576040517f08c379a000000000000000000000000000000000000000000000000000000000815260040180806020018281038252602a8152602001806113e9602a913960400191505060405180910390fd5b60006001838054905003905082818154811061120557fe5b9060005260206000200160009054906101000a900473ffffffffffffffffffffffffffffffffffffffff1683838154811061123c57fe5b9060005260206000200160006101000a81548173ffffffffffffffffffffffffffffffffffffffff021916908373ffffffffffffffffffffffffffffffffffffffff1602179055508280548061128e57fe5b6001900381819060005260206000200160006101000a81549073ffffffffffffffffffffffffffffffffffffffff02191690559055505050565b600080828401905083811015611346576040517f08c379a000000000000000000000000000000000000000000000000000000000815260040180806020018281038252601b8152602001807f536166654d6174683a206164646974696f6e206f766572666c6f77000000000081525060200191505060405180910390fd5b809150509291505056fe53747564656e74206d757374206e6f7420626520612070656e64696e672073747564656e744f776e61626c653a206e6577206f776e657220697320746865207a65726f206164647265737353747564656e74206d75737420686176652073657420746869732073757065727669736f7253747564656e742063616e6e6f7420616c7265616479206861766520612073757065727669736f7254686520696e646578206d7573742062652077697468696e2072616e6765206f6620746865206c697374a264697066735822122029581474ed596e7c3d28d14247cd885a38716b10a8397977dc3e04ef235b891f64736f6c63430007000033",
  "immutableReferences": {},
  "source": "pragma solidity ^0.7.0;\n\nimport \"@openzeppelin/contracts/math/SafeMath.sol\";\nimport \"@openzeppelin/contracts/access/Ownable.sol\";\nimport \"./utils/RArrAddress.sol\";\n\n/// @dev the contract for the interaction between the student and supervisor\ncontract StudentAndSup is Ownable {\n    using SafeMath for uint256;\n    using SafeMath for uint256;\n    using RArrAddress for address[];\n\n    enum StudentType {\n        FullStudent,\n        PendingStudent,\n        None\n    }\n\n    ///@dev all initialized students\n    address[] private students;\n\n    ///@dev all pending students\n    address[] private pendingStudents;\n\n    ///@dev a mapping of potential students to potential supervisors who they approved\n    mapping(address => address) private pendingStudentToApprovedSup;\n\n    ///@dev all initialized students mapped to their supervisor.\n    mapping(address => address) private studentToSupervisor;\n\n    /// @dev check if an address is a student by checking if the address has a supervisor\n    modifier _is_student() {\n        require(studentToSupervisor[msg.sender] != address(0));\n        _;\n    }\n\n    modifier _is_not_pending() {\n        for (uint256 i = 0; i < pendingStudents.length; i++) {\n            if (pendingStudents[i] == msg.sender) {\n                require(false, \"Student must not be a pending student\");\n            }\n        }\n        _;\n    }\n\n    constructor() {}\n\n    /// @dev get whether the student is a pending potential student, initialized, or nothing at all \n    function studentStatus() view public returns(StudentType) {\n        if (studentToSupervisor[msg.sender] != address(0)) {\n            return StudentType.FullStudent;\n        } else if (pendingStudentToApprovedSup[msg.sender] != address(0)) {\n            return StudentType.PendingStudent;\n        } else {\n            return StudentType.None;\n        }\n    }\n\n    /// @param supervisor - The student's desired supervisor\n    /// @dev msg.sender is the student's address\n    function createPotentialStudent(address supervisor)\n        external\n        _is_not_pending\n    {\n        require(\n            studentToSupervisor[msg.sender] == address(0),\n            \"Student cannot already have a supervisor\"\n        );\n        pendingStudentToApprovedSup[msg.sender] = supervisor;\n        pendingStudents.push(msg.sender);\n    }\n\n    function potentialSupApproveStudent(uint256 pendingStudentInd) external {\n        initStudent(pendingStudentInd);\n    }\n\n    /// @dev msg.sender is the supervisor\n    function initStudent(uint256 pendingStudentInd) private {\n        address student = pendingStudents[pendingStudentInd];\n        require(\n            studentToSupervisor[student] == address(0),\n            \"Student cannot already have a supervisor\"\n        );\n        require(\n            pendingStudentToApprovedSup[student] == msg.sender,\n            \"Student must have set this supervisor\"\n        );\n\n        studentToSupervisor[student] = msg.sender;\n        students.push(student);\n        pendingStudents.removeInd(pendingStudentInd);\n        delete pendingStudentToApprovedSup[student];\n    }\n\n    function getSupsStudents()\n        external\n        view\n        returns (address[] memory, uint256[] memory)\n    {\n        return getStudentsPerSup(students, studentToSupervisor, msg.sender);\n    }\n\n    function getSupsPotentialStudents()\n        external\n        view\n        returns (address[] memory, uint256[] memory)\n    {\n        return\n            getStudentsPerSup(\n                pendingStudents,\n                pendingStudentToApprovedSup,\n                msg.sender\n            );\n    }\n\n    function getStudentsPerSup(\n        address[] storage _students,\n        mapping(address => address) storage _studentToSup,\n        address supervisor\n    ) private view returns (address[] memory, uint256[] memory) {\n        uint256 count = 0;\n        for (uint256 i = 0; i < _students.length; i = i.add(1)) {\n            address student = _students[i];\n            if (_studentToSup[student] == supervisor) {\n                count = count.add(1);\n            }\n        }\n        address[] memory supsStudents = new address[](count);\n        uint256[] memory supsStudentsInds = new uint256[](count);\n\n        uint256 x = 0;\n        for (uint256 i = 0; i < _students.length; i = i.add(1)) {\n            address student = _students[i];\n            if (_studentToSup[student] == supervisor) {\n                supsStudents[x] = student;\n                supsStudentsInds[x] = i;\n                x = x.add(1);\n                // TODO: test the following!\n                // account for case where another student is added mid function call\n                if (count <= x) {\n                    return (supsStudents, supsStudentsInds);\n                }\n            }\n        }\n        return (supsStudents, supsStudentsInds);\n    }\n}\n",
  "sourcePath": "/home/lev/code/blockchain/eth/evie-timer/contracts/StudentAndSup.sol",
  "compiler": {
    "name": "solc",
    "version": "0.7.0+commit.9e61f92b.Emscripten.clang"
  },
  "schemaVersion": "3.3.3",
  "updatedAt": "2021-01-19T14:44:16.025Z",
  "devdoc": {
    "details": "the contract for the interaction between the student and supervisor",
    "kind": "dev",
    "methods": {
      "createPotentialStudent(address)": {
        "details": "msg.sender is the student's address",
        "params": {
          "supervisor": "- The student's desired supervisor"
        }
      },
      "owner()": {
        "details": "Returns the address of the current owner."
      },
      "renounceOwnership()": {
        "details": "Leaves the contract without owner. It will not be possible to call `onlyOwner` functions anymore. Can only be called by the current owner. NOTE: Renouncing ownership will leave the contract without an owner, thereby removing any functionality that is only available to the owner."
      },
      "studentStatus()": {
        "details": "get whether the student is a pending potential student, initialized, or nothing at all "
      },
      "transferOwnership(address)": {
        "details": "Transfers ownership of the contract to a new account (`newOwner`). Can only be called by the current owner."
      }
    },
    "stateVariables": {
      "pendingStudentToApprovedSup": {
        "details": "a mapping of potential students to potential supervisors who they approved"
      },
      "pendingStudents": {
        "details": "all pending students"
      },
      "studentToSupervisor": {
        "details": "all initialized students mapped to their supervisor."
      },
      "students": {
        "details": "all initialized students"
      }
    },
    "version": 1
  },
  "userdoc": {
    "kind": "user",
    "methods": {},
    "version": 1
  }
}