{
  "contractName": "StudentAndSup",
  "abi": [
    {
      "inputs": [],
      "stateMutability": "nonpayable",
      "type": "constructor"
    },
    {
      "anonymous": false,
      "inputs": [
        {
          "indexed": true,
          "internalType": "address",
          "name": "previousOwner",
          "type": "address"
        },
        {
          "indexed": true,
          "internalType": "address",
          "name": "newOwner",
          "type": "address"
        }
      ],
      "name": "OwnershipTransferred",
      "type": "event"
    },
    {
      "inputs": [],
      "name": "owner",
      "outputs": [
        {
          "internalType": "address",
          "name": "",
          "type": "address"
        }
      ],
      "stateMutability": "view",
      "type": "function"
    },
    {
      "inputs": [],
      "name": "renounceOwnership",
      "outputs": [],
      "stateMutability": "nonpayable",
      "type": "function"
    },
    {
      "inputs": [
        {
          "internalType": "address",
          "name": "newOwner",
          "type": "address"
        }
      ],
      "name": "transferOwnership",
      "outputs": [],
      "stateMutability": "nonpayable",
      "type": "function"
    },
    {
      "inputs": [
        {
          "internalType": "address",
          "name": "supervisor",
          "type": "address"
        }
      ],
      "name": "potentialStudentAllowSup",
      "outputs": [],
      "stateMutability": "nonpayable",
      "type": "function"
    },
    {
      "inputs": [
        {
          "internalType": "address",
          "name": "student",
          "type": "address"
        }
      ],
      "name": "potentialSupApproveStudent",
      "outputs": [],
      "stateMutability": "nonpayable",
      "type": "function"
    },
    {
      "inputs": [
        {
          "internalType": "address",
          "name": "supervisor",
          "type": "address"
        }
      ],
      "name": "getSupsStudents",
      "outputs": [
        {
          "internalType": "address[]",
          "name": "",
          "type": "address[]"
        }
      ],
      "stateMutability": "view",
      "type": "function"
    }
  ],
  "bytecode": "0x608060405234801561001057600080fd5b5060006100216100c460201b60201c565b9050806000806101000a81548173ffffffffffffffffffffffffffffffffffffffff021916908373ffffffffffffffffffffffffffffffffffffffff1602179055508073ffffffffffffffffffffffffffffffffffffffff16600073ffffffffffffffffffffffffffffffffffffffff167f8be0079c531659141344cd1fd0a4f28419497f9722a3daafe3b4186f6b6457e060405160405180910390a3506100cc565b600033905090565b610df0806100db6000396000f3fe608060405234801561001057600080fd5b50600436106100625760003560e01c80635a705e3914610067578063715018a6146100ab5780638da5cb5b146100b5578063b8144f48146100e9578063bac9c62114610182578063f2fde38b146101c6575b600080fd5b6100a96004803603602081101561007d57600080fd5b81019080803573ffffffffffffffffffffffffffffffffffffffff16906020019092919050505061020a565b005b6100b3610216565b005b6100bd61039c565b604051808273ffffffffffffffffffffffffffffffffffffffff16815260200191505060405180910390f35b61012b600480360360208110156100ff57600080fd5b81019080803573ffffffffffffffffffffffffffffffffffffffff1690602001909291905050506103c5565b6040518080602001828103825283818151815260200191508051906020019060200280838360005b8381101561016e578082015181840152602081019050610153565b505050509050019250505060405180910390f35b6101c46004803603602081101561019857600080fd5b81019080803573ffffffffffffffffffffffffffffffffffffffff1690602001909291905050506105e6565b005b610208600480360360208110156101dc57600080fd5b81019080803573ffffffffffffffffffffffffffffffffffffffff16906020019092919050505061074b565b005b61021381610956565b50565b61021e610cb2565b73ffffffffffffffffffffffffffffffffffffffff1660008054906101000a900473ffffffffffffffffffffffffffffffffffffffff1673ffffffffffffffffffffffffffffffffffffffff16146102de576040517f08c379a00000000000000000000000000000000000000000000000000000000081526004018080602001828103825260208152602001807f4f776e61626c653a2063616c6c6572206973206e6f7420746865206f776e657281525060200191505060405180910390fd5b600073ffffffffffffffffffffffffffffffffffffffff1660008054906101000a900473ffffffffffffffffffffffffffffffffffffffff1673ffffffffffffffffffffffffffffffffffffffff167f8be0079c531659141344cd1fd0a4f28419497f9722a3daafe3b4186f6b6457e060405160405180910390a360008060006101000a81548173ffffffffffffffffffffffffffffffffffffffff021916908373ffffffffffffffffffffffffffffffffffffffff160217905550565b60008060009054906101000a900473ffffffffffffffffffffffffffffffffffffffff16905090565b606080600260008473ffffffffffffffffffffffffffffffffffffffff1673ffffffffffffffffffffffffffffffffffffffff1681526020019081526020016000205467ffffffffffffffff8111801561041e57600080fd5b5060405190808252806020026020018201604052801561044d5781602001602082028036833780820191505090505b5090506000805b6001805490508110156105db578473ffffffffffffffffffffffffffffffffffffffff16600460006001848154811061048957fe5b9060005260206000200160009054906101000a900473ffffffffffffffffffffffffffffffffffffffff1673ffffffffffffffffffffffffffffffffffffffff1673ffffffffffffffffffffffffffffffffffffffff16815260200190815260200160002060009054906101000a900473ffffffffffffffffffffffffffffffffffffffff1673ffffffffffffffffffffffffffffffffffffffff1614156105c0576001818154811061053857fe5b9060005260206000200160009054906101000a900473ffffffffffffffffffffffffffffffffffffffff1683838151811061056f57fe5b602002602001019073ffffffffffffffffffffffffffffffffffffffff16908173ffffffffffffffffffffffffffffffffffffffff16815250506105bd600183610cba90919063ffffffff16565b91505b6105d4600182610cba90919063ffffffff16565b9050610454565b508192505050919050565b600073ffffffffffffffffffffffffffffffffffffffff16600460003373ffffffffffffffffffffffffffffffffffffffff1673ffffffffffffffffffffffffffffffffffffffff16815260200190815260200160002060009054906101000a900473ffffffffffffffffffffffffffffffffffffffff1673ffffffffffffffffffffffffffffffffffffffff16146106ca576040517f08c379a0000000000000000000000000000000000000000000000000000000008152600401808060200182810382526028815260200180610d936028913960400191505060405180910390fd5b80600360003373ffffffffffffffffffffffffffffffffffffffff1673ffffffffffffffffffffffffffffffffffffffff16815260200190815260200160002060006101000a81548173ffffffffffffffffffffffffffffffffffffffff021916908373ffffffffffffffffffffffffffffffffffffffff16021790555050565b610753610cb2565b73ffffffffffffffffffffffffffffffffffffffff1660008054906101000a900473ffffffffffffffffffffffffffffffffffffffff1673ffffffffffffffffffffffffffffffffffffffff1614610813576040517f08c379a00000000000000000000000000000000000000000000000000000000081526004018080602001828103825260208152602001807f4f776e61626c653a2063616c6c6572206973206e6f7420746865206f776e657281525060200191505060405180910390fd5b600073ffffffffffffffffffffffffffffffffffffffff168173ffffffffffffffffffffffffffffffffffffffff161415610899576040517f08c379a0000000000000000000000000000000000000000000000000000000008152600401808060200182810382526026815260200180610d436026913960400191505060405180910390fd5b8073ffffffffffffffffffffffffffffffffffffffff1660008054906101000a900473ffffffffffffffffffffffffffffffffffffffff1673ffffffffffffffffffffffffffffffffffffffff167f8be0079c531659141344cd1fd0a4f28419497f9722a3daafe3b4186f6b6457e060405160405180910390a3806000806101000a81548173ffffffffffffffffffffffffffffffffffffffff021916908373ffffffffffffffffffffffffffffffffffffffff16021790555050565b600073ffffffffffffffffffffffffffffffffffffffff16600460008373ffffffffffffffffffffffffffffffffffffffff1673ffffffffffffffffffffffffffffffffffffffff16815260200190815260200160002060009054906101000a900473ffffffffffffffffffffffffffffffffffffffff1673ffffffffffffffffffffffffffffffffffffffff1614610a3a576040517f08c379a0000000000000000000000000000000000000000000000000000000008152600401808060200182810382526028815260200180610d936028913960400191505060405180910390fd5b3373ffffffffffffffffffffffffffffffffffffffff16600360008373ffffffffffffffffffffffffffffffffffffffff1673ffffffffffffffffffffffffffffffffffffffff16815260200190815260200160002060009054906101000a900473ffffffffffffffffffffffffffffffffffffffff1673ffffffffffffffffffffffffffffffffffffffff1614610b1d576040517f08c379a000000000000000000000000000000000000000000000000000000000815260040180806020018281038252602a815260200180610d69602a913960400191505060405180910390fd5b33600460008373ffffffffffffffffffffffffffffffffffffffff1673ffffffffffffffffffffffffffffffffffffffff16815260200190815260200160002060006101000a81548173ffffffffffffffffffffffffffffffffffffffff021916908373ffffffffffffffffffffffffffffffffffffffff160217905550600260003373ffffffffffffffffffffffffffffffffffffffff1673ffffffffffffffffffffffffffffffffffffffff168152602001908152602001600020600081548092919060010191905055506001819080600181540180825580915050600190039060005260206000200160009091909190916101000a81548173ffffffffffffffffffffffffffffffffffffffff021916908373ffffffffffffffffffffffffffffffffffffffff160217905550600360008273ffffffffffffffffffffffffffffffffffffffff1673ffffffffffffffffffffffffffffffffffffffff16815260200190815260200160002060006101000a81549073ffffffffffffffffffffffffffffffffffffffff021916905550565b600033905090565b600080828401905083811015610d38576040517f08c379a000000000000000000000000000000000000000000000000000000000815260040180806020018281038252601b8152602001807f536166654d6174683a206164646974696f6e206f766572666c6f77000000000081525060200191505060405180910390fd5b809150509291505056fe4f776e61626c653a206e6577206f776e657220697320746865207a65726f206164647265737353747564656e74206d757374206861766520617070726f76656420746869732073757065727669736f7253747564656e742063616e6e6f7420616c7265616479206861766520612073757065727669736f72a264697066735822122045ae81e7301b6faa9f5e9d590e956d43283ab0d5e0352c70fb00159c245128ac64736f6c63430007000033",
  "immutableReferences": {},
  "source": "pragma solidity ^0.7.0;\n\nimport \"@openzeppelin/contracts/math/SafeMath.sol\";\nimport \"@openzeppelin/contracts/access/Ownable.sol\";\n\n/// @dev the contract for the interaction between the student and supervisor\ncontract StudentAndSup is Ownable {\n    using SafeMath for uint256;\n    using SafeMath for uint256;\n\n    ///@dev all initialized students\n    address[] private students;\n\n    mapping(address => uint256) private supervisorNumbStudents;\n\n    ///@dev a mapping of potential students to potential supervisors who they approved\n    mapping(address => address) private potentialStudentToApprovedSup;\n\n    ///@dev all initialized students mapped to their supervisor.\n    mapping(address => address) private studentToSupervisor;\n\n    /// @dev check if an address is a student by checking if the address has a supervisor\n    modifier _is_student() {\n        require(studentToSupervisor[msg.sender] != address(0));\n        _;\n    }\n\n    constructor() {}\n\n    function potentialStudentAllowSup(address supervisor) external {\n        require(\n            studentToSupervisor[msg.sender] == address(0),\n            \"Student cannot already have a supervisor\"\n        );\n        potentialStudentToApprovedSup[msg.sender] = supervisor;\n    }\n\n    function potentialSupApproveStudent(address student) external {\n      initStudent(student);\n    }\n\n    /// @dev msg.sender is the student\n    function initStudent(address student) private {\n        require(\n            studentToSupervisor[student] == address(0),\n            \"Student cannot already have a supervisor\"\n        );\n        require(\n            potentialStudentToApprovedSup[student] == msg.sender,\n            \"Student must have approved this supervisor\"\n        );\n\n        studentToSupervisor[student] = msg.sender;\n        supervisorNumbStudents[msg.sender]++;\n        students.push(student);\n        delete potentialStudentToApprovedSup[student];\n    }\n\n    function getSupsStudents(address supervisor)\n        external\n        view\n        returns (address[] memory)\n    {\n        address[] memory supsStudents =\n            new address[](supervisorNumbStudents[supervisor]);\n        uint256 counter = 0;\n        for (uint256 i = 0; i < students.length; i = i.add(1)) {\n            if (studentToSupervisor[students[i]] == supervisor) {\n                supsStudents[counter] = students[i];\n                counter = counter.add(1);\n            }\n        }\n        return supsStudents;\n    }\n}\n",
  "sourcePath": "/home/lev/code/blockchain/eth/evie-timer/contracts/StudentAndSup.sol",
  "compiler": {
    "name": "solc",
    "version": "0.7.0+commit.9e61f92b.Emscripten.clang"
  },
  "schemaVersion": "3.3.3",
  "updatedAt": "2021-01-18T00:49:02.655Z",
  "devdoc": {
    "details": "the contract for the interaction between the student and supervisor",
    "kind": "dev",
    "methods": {
      "owner()": {
        "details": "Returns the address of the current owner."
      },
      "renounceOwnership()": {
        "details": "Leaves the contract without owner. It will not be possible to call `onlyOwner` functions anymore. Can only be called by the current owner. NOTE: Renouncing ownership will leave the contract without an owner, thereby removing any functionality that is only available to the owner."
      },
      "transferOwnership(address)": {
        "details": "Transfers ownership of the contract to a new account (`newOwner`). Can only be called by the current owner."
      }
    },
    "stateVariables": {
      "potentialStudentToApprovedSup": {
        "details": "a mapping of potential students to potential supervisors who they approved"
      },
      "studentToSupervisor": {
        "details": "all initialized students mapped to their supervisor."
      },
      "students": {
        "details": "all initialized students"
      }
    },
    "version": 1
  },
  "userdoc": {
    "kind": "user",
    "methods": {},
    "version": 1
  }
}