{
  "contractName": "StudentColl",
  "abi": [
    {
      "inputs": [],
      "stateMutability": "nonpayable",
      "type": "constructor"
    },
    {
      "anonymous": false,
      "inputs": [
        {
          "indexed": true,
          "internalType": "address",
          "name": "owner",
          "type": "address"
        },
        {
          "indexed": true,
          "internalType": "address",
          "name": "approved",
          "type": "address"
        },
        {
          "indexed": true,
          "internalType": "uint256",
          "name": "tokenId",
          "type": "uint256"
        }
      ],
      "name": "Approval",
      "type": "event"
    },
    {
      "anonymous": false,
      "inputs": [
        {
          "indexed": true,
          "internalType": "address",
          "name": "owner",
          "type": "address"
        },
        {
          "indexed": true,
          "internalType": "address",
          "name": "operator",
          "type": "address"
        },
        {
          "indexed": false,
          "internalType": "bool",
          "name": "approved",
          "type": "bool"
        }
      ],
      "name": "ApprovalForAll",
      "type": "event"
    },
    {
      "anonymous": false,
      "inputs": [
        {
          "indexed": true,
          "internalType": "address",
          "name": "user",
          "type": "address"
        },
        {
          "indexed": false,
          "internalType": "uint256",
          "name": "timestamp",
          "type": "uint256"
        }
      ],
      "name": "ClockInTimeEvent",
      "type": "event"
    },
    {
      "anonymous": false,
      "inputs": [
        {
          "indexed": true,
          "internalType": "address",
          "name": "user",
          "type": "address"
        },
        {
          "indexed": false,
          "internalType": "uint256",
          "name": "timestamp",
          "type": "uint256"
        }
      ],
      "name": "ClockOutTimeEvent",
      "type": "event"
    },
    {
      "anonymous": false,
      "inputs": [
        {
          "indexed": true,
          "internalType": "address",
          "name": "previousOwner",
          "type": "address"
        },
        {
          "indexed": true,
          "internalType": "address",
          "name": "newOwner",
          "type": "address"
        }
      ],
      "name": "OwnershipTransferred",
      "type": "event"
    },
    {
      "anonymous": false,
      "inputs": [
        {
          "indexed": true,
          "internalType": "address",
          "name": "_to",
          "type": "address"
        },
        {
          "indexed": false,
          "internalType": "uint256",
          "name": "tokId",
          "type": "uint256"
        }
      ],
      "name": "PayoutMadeEvent",
      "type": "event"
    },
    {
      "anonymous": false,
      "inputs": [
        {
          "indexed": true,
          "internalType": "address",
          "name": "from",
          "type": "address"
        },
        {
          "indexed": true,
          "internalType": "address",
          "name": "to",
          "type": "address"
        },
        {
          "indexed": true,
          "internalType": "uint256",
          "name": "tokenId",
          "type": "uint256"
        }
      ],
      "name": "Transfer",
      "type": "event"
    },
    {
      "inputs": [
        {
          "internalType": "address",
          "name": "to",
          "type": "address"
        },
        {
          "internalType": "uint256",
          "name": "tokenId",
          "type": "uint256"
        }
      ],
      "name": "approve",
      "outputs": [],
      "stateMutability": "nonpayable",
      "type": "function"
    },
    {
      "inputs": [
        {
          "internalType": "address",
          "name": "owner",
          "type": "address"
        }
      ],
      "name": "balanceOf",
      "outputs": [
        {
          "internalType": "uint256",
          "name": "",
          "type": "uint256"
        }
      ],
      "stateMutability": "view",
      "type": "function"
    },
    {
      "inputs": [],
      "name": "baseURI",
      "outputs": [
        {
          "internalType": "string",
          "name": "",
          "type": "string"
        }
      ],
      "stateMutability": "view",
      "type": "function"
    },
    {
      "inputs": [
        {
          "internalType": "address",
          "name": "",
          "type": "address"
        }
      ],
      "name": "clock_in_times",
      "outputs": [
        {
          "internalType": "uint256",
          "name": "",
          "type": "uint256"
        }
      ],
      "stateMutability": "view",
      "type": "function"
    },
    {
      "inputs": [
        {
          "internalType": "address",
          "name": "supervisor",
          "type": "address"
        }
      ],
      "name": "createPotentialStudent",
      "outputs": [],
      "stateMutability": "nonpayable",
      "type": "function"
    },
    {
      "inputs": [
        {
          "internalType": "uint256",
          "name": "tokenId",
          "type": "uint256"
        }
      ],
      "name": "getApproved",
      "outputs": [
        {
          "internalType": "address",
          "name": "",
          "type": "address"
        }
      ],
      "stateMutability": "view",
      "type": "function"
    },
    {
      "inputs": [],
      "name": "getSupsPotentialStudents",
      "outputs": [
        {
          "internalType": "address[]",
          "name": "",
          "type": "address[]"
        },
        {
          "internalType": "uint256[]",
          "name": "",
          "type": "uint256[]"
        }
      ],
      "stateMutability": "view",
      "type": "function"
    },
    {
      "inputs": [],
      "name": "getSupsStudents",
      "outputs": [
        {
          "internalType": "address[]",
          "name": "",
          "type": "address[]"
        },
        {
          "internalType": "uint256[]",
          "name": "",
          "type": "uint256[]"
        }
      ],
      "stateMutability": "view",
      "type": "function"
    },
    {
      "inputs": [
        {
          "internalType": "address",
          "name": "owner",
          "type": "address"
        },
        {
          "internalType": "address",
          "name": "operator",
          "type": "address"
        }
      ],
      "name": "isApprovedForAll",
      "outputs": [
        {
          "internalType": "bool",
          "name": "",
          "type": "bool"
        }
      ],
      "stateMutability": "view",
      "type": "function"
    },
    {
      "inputs": [],
      "name": "name",
      "outputs": [
        {
          "internalType": "string",
          "name": "",
          "type": "string"
        }
      ],
      "stateMutability": "view",
      "type": "function"
    },
    {
      "inputs": [],
      "name": "owner",
      "outputs": [
        {
          "internalType": "address",
          "name": "",
          "type": "address"
        }
      ],
      "stateMutability": "view",
      "type": "function"
    },
    {
      "inputs": [
        {
          "internalType": "uint256",
          "name": "tokenId",
          "type": "uint256"
        }
      ],
      "name": "ownerOf",
      "outputs": [
        {
          "internalType": "address",
          "name": "",
          "type": "address"
        }
      ],
      "stateMutability": "view",
      "type": "function"
    },
    {
      "inputs": [
        {
          "internalType": "uint256",
          "name": "pendingStudentInd",
          "type": "uint256"
        }
      ],
      "name": "potentialSupApproveStudent",
      "outputs": [],
      "stateMutability": "nonpayable",
      "type": "function"
    },
    {
      "inputs": [],
      "name": "renounceOwnership",
      "outputs": [],
      "stateMutability": "nonpayable",
      "type": "function"
    },
    {
      "inputs": [
        {
          "internalType": "address",
          "name": "from",
          "type": "address"
        },
        {
          "internalType": "address",
          "name": "to",
          "type": "address"
        },
        {
          "internalType": "uint256",
          "name": "tokenId",
          "type": "uint256"
        }
      ],
      "name": "safeTransferFrom",
      "outputs": [],
      "stateMutability": "nonpayable",
      "type": "function"
    },
    {
      "inputs": [
        {
          "internalType": "address",
          "name": "from",
          "type": "address"
        },
        {
          "internalType": "address",
          "name": "to",
          "type": "address"
        },
        {
          "internalType": "uint256",
          "name": "tokenId",
          "type": "uint256"
        },
        {
          "internalType": "bytes",
          "name": "_data",
          "type": "bytes"
        }
      ],
      "name": "safeTransferFrom",
      "outputs": [],
      "stateMutability": "nonpayable",
      "type": "function"
    },
    {
      "inputs": [
        {
          "internalType": "address",
          "name": "operator",
          "type": "address"
        },
        {
          "internalType": "bool",
          "name": "approved",
          "type": "bool"
        }
      ],
      "name": "setApprovalForAll",
      "outputs": [],
      "stateMutability": "nonpayable",
      "type": "function"
    },
    {
      "inputs": [
        {
          "internalType": "address",
          "name": "student",
          "type": "address"
        }
      ],
      "name": "studentStatus",
      "outputs": [
        {
          "internalType": "enum StudentAndSup.StudentType",
          "name": "",
          "type": "uint8"
        }
      ],
      "stateMutability": "view",
      "type": "function"
    },
    {
      "inputs": [
        {
          "internalType": "bytes4",
          "name": "interfaceId",
          "type": "bytes4"
        }
      ],
      "name": "supportsInterface",
      "outputs": [
        {
          "internalType": "bool",
          "name": "",
          "type": "bool"
        }
      ],
      "stateMutability": "view",
      "type": "function"
    },
    {
      "inputs": [],
      "name": "symbol",
      "outputs": [
        {
          "internalType": "string",
          "name": "",
          "type": "string"
        }
      ],
      "stateMutability": "view",
      "type": "function"
    },
    {
      "inputs": [
        {
          "internalType": "uint256",
          "name": "index",
          "type": "uint256"
        }
      ],
      "name": "tokenByIndex",
      "outputs": [
        {
          "internalType": "uint256",
          "name": "",
          "type": "uint256"
        }
      ],
      "stateMutability": "view",
      "type": "function"
    },
    {
      "inputs": [
        {
          "internalType": "address",
          "name": "owner",
          "type": "address"
        },
        {
          "internalType": "uint256",
          "name": "index",
          "type": "uint256"
        }
      ],
      "name": "tokenOfOwnerByIndex",
      "outputs": [
        {
          "internalType": "uint256",
          "name": "",
          "type": "uint256"
        }
      ],
      "stateMutability": "view",
      "type": "function"
    },
    {
      "inputs": [
        {
          "internalType": "uint256",
          "name": "tokenId",
          "type": "uint256"
        }
      ],
      "name": "tokenURI",
      "outputs": [
        {
          "internalType": "string",
          "name": "",
          "type": "string"
        }
      ],
      "stateMutability": "view",
      "type": "function"
    },
    {
      "inputs": [],
      "name": "totalSupply",
      "outputs": [
        {
          "internalType": "uint256",
          "name": "",
          "type": "uint256"
        }
      ],
      "stateMutability": "view",
      "type": "function"
    },
    {
      "inputs": [
        {
          "internalType": "address",
          "name": "from",
          "type": "address"
        },
        {
          "internalType": "address",
          "name": "to",
          "type": "address"
        },
        {
          "internalType": "uint256",
          "name": "tokenId",
          "type": "uint256"
        }
      ],
      "name": "transferFrom",
      "outputs": [],
      "stateMutability": "nonpayable",
      "type": "function"
    },
    {
      "inputs": [
        {
          "internalType": "address",
          "name": "newOwner",
          "type": "address"
        }
      ],
      "name": "transferOwnership",
      "outputs": [],
      "stateMutability": "nonpayable",
      "type": "function"
    },
    {
      "inputs": [
        {
          "internalType": "address",
          "name": "student",
          "type": "address"
        }
      ],
      "name": "getPendingCollectibles",
      "outputs": [
        {
          "internalType": "uint256[]",
          "name": "",
          "type": "uint256[]"
        }
      ],
      "stateMutability": "view",
      "type": "function"
    },
    {
      "inputs": [],
      "name": "clockStartTime",
      "outputs": [],
      "stateMutability": "nonpayable",
      "type": "function"
    },
    {
      "inputs": [],
      "name": "clockEndTime",
      "outputs": [],
      "stateMutability": "nonpayable",
      "type": "function"
    }
  ],
  "bytecode": "0x60806040523480156200001157600080fd5b506040518060400160405280600b81526020017f53747564656e74436f6c6c0000000000000000000000000000000000000000008152506040518060400160405280600381526020017f5354550000000000000000000000000000000000000000000000000000000000815250620000966301ffc9a760e01b620001da60201b60201c565b8160069080519060200190620000ae92919062000506565b508060079080519060200190620000c792919062000506565b50620000e06380ac58cd60e01b620001da60201b60201c565b620000f8635b5e139f60e01b620001da60201b60201c565b6200011063780e9d6360e01b620001da60201b60201c565b5050600062000124620002e360201b60201c565b905080600a60006101000a81548173ffffffffffffffffffffffffffffffffffffffff021916908373ffffffffffffffffffffffffffffffffffffffff1602179055508073ffffffffffffffffffffffffffffffffffffffff16600073ffffffffffffffffffffffffffffffffffffffff167f8be0079c531659141344cd1fd0a4f28419497f9722a3daafe3b4186f6b6457e060405160405180910390a350620001d433620002eb60201b60201c565b620005ac565b63ffffffff60e01b817bffffffffffffffffffffffffffffffffffffffffffffffffffffffff1916141562000277576040517f08c379a000000000000000000000000000000000000000000000000000000000815260040180806020018281038252601c8152602001807f4552433136353a20696e76616c696420696e746572666163652069640000000081525060200191505060405180910390fd5b6001600080837bffffffffffffffffffffffffffffffffffffffffffffffffffffffff19167bffffffffffffffffffffffffffffffffffffffffffffffffffffffff1916815260200190815260200160002060006101000a81548160ff02191690831515021790555050565b600033905090565b620002fb620002e360201b60201c565b73ffffffffffffffffffffffffffffffffffffffff16600a60009054906101000a900473ffffffffffffffffffffffffffffffffffffffff1673ffffffffffffffffffffffffffffffffffffffff1614620003be576040517f08c379a00000000000000000000000000000000000000000000000000000000081526004018080602001828103825260208152602001807f4f776e61626c653a2063616c6c6572206973206e6f7420746865206f776e657281525060200191505060405180910390fd5b600073ffffffffffffffffffffffffffffffffffffffff168173ffffffffffffffffffffffffffffffffffffffff16141562000446576040517f08c379a000000000000000000000000000000000000000000000000000000000815260040180806020018281038252602681526020018062004a8d6026913960400191505060405180910390fd5b8073ffffffffffffffffffffffffffffffffffffffff16600a60009054906101000a900473ffffffffffffffffffffffffffffffffffffffff1673ffffffffffffffffffffffffffffffffffffffff167f8be0079c531659141344cd1fd0a4f28419497f9722a3daafe3b4186f6b6457e060405160405180910390a380600a60006101000a81548173ffffffffffffffffffffffffffffffffffffffff021916908373ffffffffffffffffffffffffffffffffffffffff16021790555050565b828054600181600116156101000203166002900490600052602060002090601f016020900481019282601f106200054957805160ff19168380011785556200057a565b828001600101855582156200057a579182015b82811115620005795782518255916020019190600101906200055c565b5b5090506200058991906200058d565b5090565b5b80821115620005a85760008160009055506001016200058e565b5090565b6144d180620005bc6000396000f3fe608060405234801561001057600080fd5b50600436106101cf5760003560e01c80636771257011610104578063a481aada116100a2578063db68f61211610071578063db68f61214610b25578063e985e9c514610b7d578063f2fde38b14610bf7578063f86b010d14610c3b576101cf565b8063a481aada14610965578063b88d4fde1461096f578063b939df5914610a74578063c87b56dd14610a7e576101cf565b8063715018a6116100de578063715018a6146108545780638da5cb5b1461085e57806395d89b4114610892578063a22cb46514610915576101cf565b806367712570146106d25780636c0360eb1461077957806370a08231146107fc576101cf565b80631e99dd47116101715780632f745c591161014b5780632f745c591461056857806342842e0e146105ca5780634f6ccce7146106385780636352211e1461067a576101cf565b80631e99dd471461042557806323b872dd146104535780632ce0ece6146104c1576101cf565b8063095ea7b3116101ad578063095ea7b314610312578063097b009a1461036057806318160ddd146103c35780631e5792a0146103e1576101cf565b806301ffc9a7146101d457806306fdde0314610237578063081812fc146102ba575b600080fd5b61021f600480360360208110156101ea57600080fd5b8101908080357bffffffffffffffffffffffffffffffffffffffffffffffffffffffff19169060200190929190505050610cd4565b60405180821515815260200191505060405180910390f35b61023f610d3b565b6040518080602001828103825283818151815260200191508051906020019080838360005b8381101561027f578082015181840152602081019050610264565b50505050905090810190601f1680156102ac5780820380516001836020036101000a031916815260200191505b509250505060405180910390f35b6102e6600480360360208110156102d057600080fd5b8101908080359060200190929190505050610ddd565b604051808273ffffffffffffffffffffffffffffffffffffffff16815260200191505060405180910390f35b61035e6004803603604081101561032857600080fd5b81019080803573ffffffffffffffffffffffffffffffffffffffff16906020019092919080359060200190929190505050610e78565b005b6103a26004803603602081101561037657600080fd5b81019080803573ffffffffffffffffffffffffffffffffffffffff169060200190929190505050610fbc565b604051808260028111156103b257fe5b815260200191505060405180910390f35b6103cb6110ff565b6040518082815260200191505060405180910390f35b610423600480360360208110156103f757600080fd5b81019080803573ffffffffffffffffffffffffffffffffffffffff169060200190929190505050611110565b005b6104516004803603602081101561043b57600080fd5b81019080803590602001909291905050506113b9565b005b6104bf6004803603606081101561046957600080fd5b81019080803573ffffffffffffffffffffffffffffffffffffffff169060200190929190803573ffffffffffffffffffffffffffffffffffffffff169060200190929190803590602001909291905050506113c5565b005b6104c961143b565b604051808060200180602001838103835285818151815260200191508051906020019060200280838360005b838110156105105780820151818401526020810190506104f5565b50505050905001838103825284818151815260200191508051906020019060200280838360005b83811015610552578082015181840152602081019050610537565b5050505090500194505050505060405180910390f35b6105b46004803603604081101561057e57600080fd5b81019080803573ffffffffffffffffffffffffffffffffffffffff16906020019092919080359060200190929190505050611453565b6040518082815260200191505060405180910390f35b610636600480360360608110156105e057600080fd5b81019080803573ffffffffffffffffffffffffffffffffffffffff169060200190929190803573ffffffffffffffffffffffffffffffffffffffff169060200190929190803590602001909291905050506114ae565b005b6106646004803603602081101561064e57600080fd5b81019080803590602001909291905050506114ce565b6040518082815260200191505060405180910390f35b6106a66004803603602081101561069057600080fd5b81019080803590602001909291905050506114f1565b604051808273ffffffffffffffffffffffffffffffffffffffff16815260200191505060405180910390f35b6106da611528565b604051808060200180602001838103835285818151815260200191508051906020019060200280838360005b83811015610721578082015181840152602081019050610706565b50505050905001838103825284818151815260200191508051906020019060200280838360005b83811015610763578082015181840152602081019050610748565b5050505090500194505050505060405180910390f35b610781611540565b6040518080602001828103825283818151815260200191508051906020019080838360005b838110156107c15780820151818401526020810190506107a6565b50505050905090810190601f1680156107ee5780820380516001836020036101000a031916815260200191505b509250505060405180910390f35b61083e6004803603602081101561081257600080fd5b81019080803573ffffffffffffffffffffffffffffffffffffffff1690602001909291905050506115e2565b6040518082815260200191505060405180910390f35b61085c6116b7565b005b610866611842565b604051808273ffffffffffffffffffffffffffffffffffffffff16815260200191505060405180910390f35b61089a61186c565b6040518080602001828103825283818151815260200191508051906020019080838360005b838110156108da5780820151818401526020810190506108bf565b50505050905090810190601f1680156109075780820380516001836020036101000a031916815260200191505b509250505060405180910390f35b6109636004803603604081101561092b57600080fd5b81019080803573ffffffffffffffffffffffffffffffffffffffff16906020019092919080351515906020019092919050505061190e565b005b61096d611ac4565b005b610a726004803603608081101561098557600080fd5b81019080803573ffffffffffffffffffffffffffffffffffffffff169060200190929190803573ffffffffffffffffffffffffffffffffffffffff16906020019092919080359060200190929190803590602001906401000000008111156109ec57600080fd5b8201836020820111156109fe57600080fd5b80359060200191846001830284011164010000000083111715610a2057600080fd5b91908080601f016020809104026020016040519081016040528093929190818152602001838380828437600081840152601f19601f820116905080830192505050505050509192919290505050611cd6565b005b610a7c611d4e565b005b610aaa60048036036020811015610a9457600080fd5b8101908080359060200190929190505050611eed565b6040518080602001828103825283818151815260200191508051906020019080838360005b83811015610aea578082015181840152602081019050610acf565b50505050905090810190601f168015610b175780820380516001836020036101000a031916815260200191505b509250505060405180910390f35b610b6760048036036020811015610b3b57600080fd5b81019080803573ffffffffffffffffffffffffffffffffffffffff1690602001909291905050506121d6565b6040518082815260200191505060405180910390f35b610bdf60048036036040811015610b9357600080fd5b81019080803573ffffffffffffffffffffffffffffffffffffffff169060200190929190803573ffffffffffffffffffffffffffffffffffffffff1690602001909291905050506121ee565b60405180821515815260200191505060405180910390f35b610c3960048036036020811015610c0d57600080fd5b81019080803573ffffffffffffffffffffffffffffffffffffffff169060200190929190505050612282565b005b610c7d60048036036020811015610c5157600080fd5b81019080803573ffffffffffffffffffffffffffffffffffffffff169060200190929190505050612492565b6040518080602001828103825283818151815260200191508051906020019060200280838360005b83811015610cc0578082015181840152602081019050610ca5565b505050509050019250505060405180910390f35b6000806000837bffffffffffffffffffffffffffffffffffffffffffffffffffffffff19167bffffffffffffffffffffffffffffffffffffffffffffffffffffffff1916815260200190815260200160002060009054906101000a900460ff169050919050565b606060068054600181600116156101000203166002900480601f016020809104026020016040519081016040528092919081815260200182805460018160011615610100020316600290048015610dd35780601f10610da857610100808354040283529160200191610dd3565b820191906000526020600020905b815481529060010190602001808311610db657829003601f168201915b5050505050905090565b6000610de882612529565b610e3d576040517f08c379a000000000000000000000000000000000000000000000000000000000815260040180806020018281038252602c81526020018061439c602c913960400191505060405180910390fd5b6004600083815260200190815260200160002060009054906101000a900473ffffffffffffffffffffffffffffffffffffffff169050919050565b6000610e83826114f1565b90508073ffffffffffffffffffffffffffffffffffffffff168373ffffffffffffffffffffffffffffffffffffffff161415610f0a576040517f08c379a000000000000000000000000000000000000000000000000000000000815260040180806020018281038252602181526020018061444a6021913960400191505060405180910390fd5b8073ffffffffffffffffffffffffffffffffffffffff16610f29612546565b73ffffffffffffffffffffffffffffffffffffffff161480610f585750610f5781610f52612546565b6121ee565b5b610fad576040517f08c379a00000000000000000000000000000000000000000000000000000000081526004018080602001828103825260388152602001806142c76038913960400191505060405180910390fd5b610fb7838361254e565b505050565b60008073ffffffffffffffffffffffffffffffffffffffff16600e60008473ffffffffffffffffffffffffffffffffffffffff1673ffffffffffffffffffffffffffffffffffffffff16815260200190815260200160002060009054906101000a900473ffffffffffffffffffffffffffffffffffffffff1673ffffffffffffffffffffffffffffffffffffffff161461105957600090506110fa565b600073ffffffffffffffffffffffffffffffffffffffff16600d60008473ffffffffffffffffffffffffffffffffffffffff1673ffffffffffffffffffffffffffffffffffffffff16815260200190815260200160002060009054906101000a900473ffffffffffffffffffffffffffffffffffffffff1673ffffffffffffffffffffffffffffffffffffffff16146110f557600190506110fa565b600290505b919050565b600061110b6002612607565b905090565b60005b600c805490508110156111f0573373ffffffffffffffffffffffffffffffffffffffff16600c828154811061114457fe5b9060005260206000200160009054906101000a900473ffffffffffffffffffffffffffffffffffffffff1673ffffffffffffffffffffffffffffffffffffffff1614156111e35760006111e2576040517f08c379a00000000000000000000000000000000000000000000000000000000081526004018080602001828103825260258152602001806141af6025913960400191505060405180910390fd5b5b8080600101915050611113565b50600073ffffffffffffffffffffffffffffffffffffffff16600e60003373ffffffffffffffffffffffffffffffffffffffff1673ffffffffffffffffffffffffffffffffffffffff16815260200190815260200160002060009054906101000a900473ffffffffffffffffffffffffffffffffffffffff1673ffffffffffffffffffffffffffffffffffffffff16146112d5576040517f08c379a00000000000000000000000000000000000000000000000000000000081526004018080602001828103825260288152602001806143746028913960400191505060405180910390fd5b80600d60003373ffffffffffffffffffffffffffffffffffffffff1673ffffffffffffffffffffffffffffffffffffffff16815260200190815260200160002060006101000a81548173ffffffffffffffffffffffffffffffffffffffff021916908373ffffffffffffffffffffffffffffffffffffffff160217905550600c339080600181540180825580915050600190039060005260206000200160009091909190916101000a81548173ffffffffffffffffffffffffffffffffffffffff021916908373ffffffffffffffffffffffffffffffffffffffff16021790555050565b6113c28161261c565b50565b6113d66113d0612546565b8261297a565b61142b576040517f08c379a000000000000000000000000000000000000000000000000000000000815260040180806020018281038252603181526020018061446b6031913960400191505060405180910390fd5b611436838383612a6e565b505050565b60608061144b600b600e33612cb1565b915091509091565b60006114a682600160008673ffffffffffffffffffffffffffffffffffffffff1673ffffffffffffffffffffffffffffffffffffffff168152602001908152602001600020612ff790919063ffffffff16565b905092915050565b6114c983838360405180602001604052806000815250611cd6565b505050565b6000806114e583600261301190919063ffffffff16565b50905080915050919050565b60006115218260405180606001604052806029815260200161432960299139600261303d9092919063ffffffff16565b9050919050565b606080611538600c600d33612cb1565b915091509091565b606060098054600181600116156101000203166002900480601f0160208091040260200160405190810160405280929190818152602001828054600181600116156101000203166002900480156115d85780601f106115ad576101008083540402835291602001916115d8565b820191906000526020600020905b8154815290600101906020018083116115bb57829003601f168201915b5050505050905090565b60008073ffffffffffffffffffffffffffffffffffffffff168273ffffffffffffffffffffffffffffffffffffffff161415611669576040517f08c379a000000000000000000000000000000000000000000000000000000000815260040180806020018281038252602a8152602001806142ff602a913960400191505060405180910390fd5b6116b0600160008473ffffffffffffffffffffffffffffffffffffffff1673ffffffffffffffffffffffffffffffffffffffff16815260200190815260200160002061305c565b9050919050565b6116bf612546565b73ffffffffffffffffffffffffffffffffffffffff16600a60009054906101000a900473ffffffffffffffffffffffffffffffffffffffff1673ffffffffffffffffffffffffffffffffffffffff1614611781576040517f08c379a00000000000000000000000000000000000000000000000000000000081526004018080602001828103825260208152602001807f4f776e61626c653a2063616c6c6572206973206e6f7420746865206f776e657281525060200191505060405180910390fd5b600073ffffffffffffffffffffffffffffffffffffffff16600a60009054906101000a900473ffffffffffffffffffffffffffffffffffffffff1673ffffffffffffffffffffffffffffffffffffffff167f8be0079c531659141344cd1fd0a4f28419497f9722a3daafe3b4186f6b6457e060405160405180910390a36000600a60006101000a81548173ffffffffffffffffffffffffffffffffffffffff021916908373ffffffffffffffffffffffffffffffffffffffff160217905550565b6000600a60009054906101000a900473ffffffffffffffffffffffffffffffffffffffff16905090565b606060078054600181600116156101000203166002900480601f0160208091040260200160405190810160405280929190818152602001828054600181600116156101000203166002900480156119045780601f106118d957610100808354040283529160200191611904565b820191906000526020600020905b8154815290600101906020018083116118e757829003601f168201915b5050505050905090565b611916612546565b73ffffffffffffffffffffffffffffffffffffffff168273ffffffffffffffffffffffffffffffffffffffff1614156119b7576040517f08c379a00000000000000000000000000000000000000000000000000000000081526004018080602001828103825260198152602001807f4552433732313a20617070726f766520746f2063616c6c65720000000000000081525060200191505060405180910390fd5b80600560006119c4612546565b73ffffffffffffffffffffffffffffffffffffffff1673ffffffffffffffffffffffffffffffffffffffff16815260200190815260200160002060008473ffffffffffffffffffffffffffffffffffffffff1673ffffffffffffffffffffffffffffffffffffffff16815260200190815260200160002060006101000a81548160ff0219169083151502179055508173ffffffffffffffffffffffffffffffffffffffff16611a71612546565b73ffffffffffffffffffffffffffffffffffffffff167f17307eab39ab6107e8899845ad3d59bd9653f200f220920489ca2b5937696c318360405180821515815260200191505060405180910390a35050565b601260003373ffffffffffffffffffffffffffffffffffffffff1673ffffffffffffffffffffffffffffffffffffffff16815260200190815260200160002060009054906101000a900461ffff1661ffff16611b2c620151804261307190919063ffffffff16565b61ffff1611611b3a57600080fd5b600073ffffffffffffffffffffffffffffffffffffffff16600e60003373ffffffffffffffffffffffffffffffffffffffff1673ffffffffffffffffffffffffffffffffffffffff16815260200190815260200160002060009054906101000a900473ffffffffffffffffffffffffffffffffffffffff1673ffffffffffffffffffffffffffffffffffffffff161415611bd357600080fd5b42601160003373ffffffffffffffffffffffffffffffffffffffff1673ffffffffffffffffffffffffffffffffffffffff16815260200190815260200160002081905550611c2d620151804261307190919063ffffffff16565b601260003373ffffffffffffffffffffffffffffffffffffffff1673ffffffffffffffffffffffffffffffffffffffff16815260200190815260200160002060006101000a81548161ffff021916908361ffff1602179055503373ffffffffffffffffffffffffffffffffffffffff167fd43639c22edfa44378754c6d9b9b75b749d1512256727b73d99ba6f758ad2817426040518082815260200191505060405180910390a2565b611ce7611ce1612546565b8361297a565b611d3c576040517f08c379a000000000000000000000000000000000000000000000000000000000815260040180806020018281038252603181526020018061446b6031913960400191505060405180910390fd5b611d48848484846130bb565b50505050565b600073ffffffffffffffffffffffffffffffffffffffff16600e60003373ffffffffffffffffffffffffffffffffffffffff1673ffffffffffffffffffffffffffffffffffffffff16815260200190815260200160002060009054906101000a900473ffffffffffffffffffffffffffffffffffffffff1673ffffffffffffffffffffffffffffffffffffffff161415611de757600080fd5b6000429050601160003373ffffffffffffffffffffffffffffffffffffffff1673ffffffffffffffffffffffffffffffffffffffff16815260200190815260200160002054811015611e3857600080fd5b610e10611e8d601160003373ffffffffffffffffffffffffffffffffffffffff1673ffffffffffffffffffffffffffffffffffffffff168152602001908152602001600020548361312d90919063ffffffff16565b11611e9c57611e9b33613177565b5b3373ffffffffffffffffffffffffffffffffffffffff167fd6d4a83c50f8452f78f64b946692a111c56aa380e4e5f2a42deff2e69a03ba9a426040518082815260200191505060405180910390a250565b6060611ef882612529565b611f4d576040517f08c379a000000000000000000000000000000000000000000000000000000000815260040180806020018281038252602f8152602001806143f1602f913960400191505060405180910390fd5b6060600860008481526020019081526020016000208054600181600116156101000203166002900480601f016020809104026020016040519081016040528092919081815260200182805460018160011615610100020316600290048015611ff65780601f10611fcb57610100808354040283529160200191611ff6565b820191906000526020600020905b815481529060010190602001808311611fd957829003601f168201915b5050505050905060006009805460018160011615610100020316600290049050141561202557809150506121d1565b6000815111156120fe5760098160405160200180838054600181600116156101000203166002900480156120905780601f1061206e576101008083540402835291820191612090565b820191906000526020600020905b81548152906001019060200180831161207c575b505082805190602001908083835b602083106120c1578051825260208201915060208101905060208303925061209e565b6001836020036101000a038019825116818451168082178552505050505050905001925050506040516020818303038152906040529150506121d1565b6009612109846132e0565b60405160200180838054600181600116156101000203166002900480156121675780601f10612145576101008083540402835291820191612167565b820191906000526020600020905b815481529060010190602001808311612153575b505082805190602001908083835b602083106121985780518252602082019150602081019050602083039250612175565b6001836020036101000a038019825116818451168082178552505050505050905001925050506040516020818303038152906040529150505b919050565b60116020528060005260406000206000915090505481565b6000600560008473ffffffffffffffffffffffffffffffffffffffff1673ffffffffffffffffffffffffffffffffffffffff16815260200190815260200160002060008373ffffffffffffffffffffffffffffffffffffffff1673ffffffffffffffffffffffffffffffffffffffff16815260200190815260200160002060009054906101000a900460ff16905092915050565b61228a612546565b73ffffffffffffffffffffffffffffffffffffffff16600a60009054906101000a900473ffffffffffffffffffffffffffffffffffffffff1673ffffffffffffffffffffffffffffffffffffffff161461234c576040517f08c379a00000000000000000000000000000000000000000000000000000000081526004018080602001828103825260208152602001807f4f776e61626c653a2063616c6c6572206973206e6f7420746865206f776e657281525060200191505060405180910390fd5b600073ffffffffffffffffffffffffffffffffffffffff168173ffffffffffffffffffffffffffffffffffffffff1614156123d2576040517f08c379a00000000000000000000000000000000000000000000000000000000081526004018080602001828103825260268152602001806142066026913960400191505060405180910390fd5b8073ffffffffffffffffffffffffffffffffffffffff16600a60009054906101000a900473ffffffffffffffffffffffffffffffffffffffff1673ffffffffffffffffffffffffffffffffffffffff167f8be0079c531659141344cd1fd0a4f28419497f9722a3daafe3b4186f6b6457e060405160405180910390a380600a60006101000a81548173ffffffffffffffffffffffffffffffffffffffff021916908373ffffffffffffffffffffffffffffffffffffffff16021790555050565b6060601060008373ffffffffffffffffffffffffffffffffffffffff1673ffffffffffffffffffffffffffffffffffffffff16815260200190815260200160002080548060200260200160405190810160405280929190818152602001828054801561251d57602002820191906000526020600020905b815481526020019060010190808311612509575b50505050509050919050565b600061253f82600261342790919063ffffffff16565b9050919050565b600033905090565b816004600083815260200190815260200160002060006101000a81548173ffffffffffffffffffffffffffffffffffffffff021916908373ffffffffffffffffffffffffffffffffffffffff160217905550808273ffffffffffffffffffffffffffffffffffffffff166125c1836114f1565b73ffffffffffffffffffffffffffffffffffffffff167f8c5be1e5ebec7d5bd14f71427d1e84f3dd0314c0f7b2291e5b200ac8c7c3b92560405160405180910390a45050565b600061261582600001613441565b9050919050565b6000600c828154811061262b57fe5b9060005260206000200160009054906101000a900473ffffffffffffffffffffffffffffffffffffffff169050600073ffffffffffffffffffffffffffffffffffffffff16600e60008373ffffffffffffffffffffffffffffffffffffffff1673ffffffffffffffffffffffffffffffffffffffff16815260200190815260200160002060009054906101000a900473ffffffffffffffffffffffffffffffffffffffff1673ffffffffffffffffffffffffffffffffffffffff161461273c576040517f08c379a00000000000000000000000000000000000000000000000000000000081526004018080602001828103825260288152602001806143746028913960400191505060405180910390fd5b3373ffffffffffffffffffffffffffffffffffffffff16600d60008373ffffffffffffffffffffffffffffffffffffffff1673ffffffffffffffffffffffffffffffffffffffff16815260200190815260200160002060009054906101000a900473ffffffffffffffffffffffffffffffffffffffff1673ffffffffffffffffffffffffffffffffffffffff161461281f576040517f08c379a00000000000000000000000000000000000000000000000000000000081526004018080602001828103825260258152602001806142506025913960400191505060405180910390fd5b33600e60008373ffffffffffffffffffffffffffffffffffffffff1673ffffffffffffffffffffffffffffffffffffffff16815260200190815260200160002060006101000a81548173ffffffffffffffffffffffffffffffffffffffff021916908373ffffffffffffffffffffffffffffffffffffffff160217905550600b819080600181540180825580915050600190039060005260206000200160009091909190916101000a81548173ffffffffffffffffffffffffffffffffffffffff021916908373ffffffffffffffffffffffffffffffffffffffff16021790555061291482600c61345290919063ffffffff16565b600d60008273ffffffffffffffffffffffffffffffffffffffff1673ffffffffffffffffffffffffffffffffffffffff16815260200190815260200160002060006101000a81549073ffffffffffffffffffffffffffffffffffffffff02191690555050565b600061298582612529565b6129da576040517f08c379a000000000000000000000000000000000000000000000000000000000815260040180806020018281038252602c81526020018061429b602c913960400191505060405180910390fd5b60006129e5836114f1565b90508073ffffffffffffffffffffffffffffffffffffffff168473ffffffffffffffffffffffffffffffffffffffff161480612a5457508373ffffffffffffffffffffffffffffffffffffffff16612a3c84610ddd565b73ffffffffffffffffffffffffffffffffffffffff16145b80612a655750612a6481856121ee565b5b91505092915050565b8273ffffffffffffffffffffffffffffffffffffffff16612a8e826114f1565b73ffffffffffffffffffffffffffffffffffffffff1614612afa576040517f08c379a00000000000000000000000000000000000000000000000000000000081526004018080602001828103825260298152602001806143c86029913960400191505060405180910390fd5b600073ffffffffffffffffffffffffffffffffffffffff168273ffffffffffffffffffffffffffffffffffffffff161415612b80576040517f08c379a000000000000000000000000000000000000000000000000000000000815260040180806020018281038252602481526020018061422c6024913960400191505060405180910390fd5b612b8b838383613596565b612b9660008261254e565b612be781600160008673ffffffffffffffffffffffffffffffffffffffff1673ffffffffffffffffffffffffffffffffffffffff16815260200190815260200160002061359b90919063ffffffff16565b50612c3981600160008573ffffffffffffffffffffffffffffffffffffffff1673ffffffffffffffffffffffffffffffffffffffff1681526020019081526020016000206135b590919063ffffffff16565b50612c50818360026135cf9092919063ffffffff16565b50808273ffffffffffffffffffffffffffffffffffffffff168473ffffffffffffffffffffffffffffffffffffffff167fddf252ad1be2c89b69c2b068fc378daa952ba7f163c4a11628f55a4df523b3ef60405160405180910390a4505050565b6060806000805b8680549050811015612dc4576000878281548110612cd257fe5b9060005260206000200160009054906101000a900473ffffffffffffffffffffffffffffffffffffffff1690508573ffffffffffffffffffffffffffffffffffffffff168760008373ffffffffffffffffffffffffffffffffffffffff1673ffffffffffffffffffffffffffffffffffffffff16815260200190815260200160002060009054906101000a900473ffffffffffffffffffffffffffffffffffffffff1673ffffffffffffffffffffffffffffffffffffffff161415612da857612da560018461360490919063ffffffff16565b92505b50612dbd60018261360490919063ffffffff16565b9050612cb8565b5060608167ffffffffffffffff81118015612dde57600080fd5b50604051908082528060200260200182016040528015612e0d5781602001602082028036833780820191505090505b50905060608267ffffffffffffffff81118015612e2957600080fd5b50604051908082528060200260200182016040528015612e585781602001602082028036833780820191505090505b5090506000805b8980549050811015612fe35760008a8281548110612e7957fe5b9060005260206000200160009054906101000a900473ffffffffffffffffffffffffffffffffffffffff1690508873ffffffffffffffffffffffffffffffffffffffff168a60008373ffffffffffffffffffffffffffffffffffffffff1673ffffffffffffffffffffffffffffffffffffffff16815260200190815260200160002060009054906101000a900473ffffffffffffffffffffffffffffffffffffffff1673ffffffffffffffffffffffffffffffffffffffff161415612fc75780858481518110612f4557fe5b602002602001019073ffffffffffffffffffffffffffffffffffffffff16908173ffffffffffffffffffffffffffffffffffffffff168152505081848481518110612f8c57fe5b602002602001018181525050612fac60018461360490919063ffffffff16565b9250828611612fc657848497509750505050505050612fef565b5b50612fdc60018261360490919063ffffffff16565b9050612e5f565b50828295509550505050505b935093915050565b6000613006836000018361368c565b60001c905092915050565b600080600080613024866000018661370f565b915091508160001c8160001c9350935050509250929050565b6000613050846000018460001b846137a8565b60001c90509392505050565b600061306a8260000161389e565b9050919050565b60006130b383836040518060400160405280601a81526020017f536166654d6174683a206469766973696f6e206279207a65726f0000000000008152506138af565b905092915050565b6130c6848484612a6e565b6130d284848484613975565b613127576040517f08c379a00000000000000000000000000000000000000000000000000000000081526004018080602001828103825260328152602001806141d46032913960400191505060405180910390fd5b50505050565b600061316f83836040518060400160405280601e81526020017f536166654d6174683a207375627472616374696f6e206f766572666c6f770000815250613b8e565b905092915050565b600073ffffffffffffffffffffffffffffffffffffffff16600e60003373ffffffffffffffffffffffffffffffffffffffff1673ffffffffffffffffffffffffffffffffffffffff16815260200190815260200160002060009054906101000a900473ffffffffffffffffffffffffffffffffffffffff1673ffffffffffffffffffffffffffffffffffffffff16141561321057600080fd5b61321a600f613c4e565b6000613226600f613c64565b9050601060008373ffffffffffffffffffffffffffffffffffffffff1673ffffffffffffffffffffffffffffffffffffffff1681526020019081526020016000208190806001815401808255809150506001900390600052602060002001600090919091909150558173ffffffffffffffffffffffffffffffffffffffff167f206f9d86997f19b3edba08c74d5d6c53f9b51edccccfbc4b826afe94403e8594826040518082815260200191505060405180910390a25050565b60606000821415613328576040518060400160405280600181526020017f30000000000000000000000000000000000000000000000000000000000000008152509050613422565b600082905060005b60008214613352578080600101915050600a828161334a57fe5b049150613330565b60608167ffffffffffffffff8111801561336b57600080fd5b506040519080825280601f01601f19166020018201604052801561339e5781602001600182028036833780820191505090505b50905060006001830390508593505b6000841461341a57600a84816133bf57fe5b0660300160f81b828280600190039350815181106133d957fe5b60200101907effffffffffffffffffffffffffffffffffffffffffffffffffffffffffffff1916908160001a905350600a848161341257fe5b0493506133ad565b819450505050505b919050565b6000613439836000018360001b613c72565b905092915050565b600081600001805490509050919050565b806000111580156134665750818054905081105b6134bb576040517f08c379a000000000000000000000000000000000000000000000000000000000815260040180806020018281038252602a815260200180614420602a913960400191505060405180910390fd5b6000600183805490500390508281815481106134d357fe5b9060005260206000200160009054906101000a900473ffffffffffffffffffffffffffffffffffffffff1683838154811061350a57fe5b9060005260206000200160006101000a81548173ffffffffffffffffffffffffffffffffffffffff021916908373ffffffffffffffffffffffffffffffffffffffff1602179055508280548061355c57fe5b6001900381819060005260206000200160006101000a81549073ffffffffffffffffffffffffffffffffffffffff02191690559055505050565b505050565b60006135ad836000018360001b613c95565b905092915050565b60006135c7836000018360001b613d7d565b905092915050565b60006135fb846000018460001b8473ffffffffffffffffffffffffffffffffffffffff1660001b613ded565b90509392505050565b600080828401905083811015613682576040517f08c379a000000000000000000000000000000000000000000000000000000000815260040180806020018281038252601b8152602001807f536166654d6174683a206164646974696f6e206f766572666c6f77000000000081525060200191505060405180910390fd5b8091505092915050565b6000818360000180549050116136ed576040517f08c379a000000000000000000000000000000000000000000000000000000000815260040180806020018281038252602281526020018061418d6022913960400191505060405180910390fd5b8260000182815481106136fc57fe5b9060005260206000200154905092915050565b60008082846000018054905011613771576040517f08c379a00000000000000000000000000000000000000000000000000000000081526004018080602001828103825260228152602001806143526022913960400191505060405180910390fd5b600084600001848154811061378257fe5b906000526020600020906002020190508060000154816001015492509250509250929050565b6000808460010160008581526020019081526020016000205490506000811415839061386f576040517f08c379a00000000000000000000000000000000000000000000000000000000081526004018080602001828103825283818151815260200191508051906020019080838360005b83811015613834578082015181840152602081019050613819565b50505050905090810190601f1680156138615780820380516001836020036101000a031916815260200191505b509250505060405180910390fd5b5084600001600182038154811061388257fe5b9060005260206000209060020201600101549150509392505050565b600081600001805490509050919050565b6000808311829061395b576040517f08c379a00000000000000000000000000000000000000000000000000000000081526004018080602001828103825283818151815260200191508051906020019080838360005b83811015613920578082015181840152602081019050613905565b50505050905090810190601f16801561394d5780820380516001836020036101000a031916815260200191505b509250505060405180910390fd5b50600083858161396757fe5b049050809150509392505050565b60006139968473ffffffffffffffffffffffffffffffffffffffff16613ec9565b6139a35760019050613b86565b6060613b0d63150b7a0260e01b6139b8612546565b888787604051602401808573ffffffffffffffffffffffffffffffffffffffff1681526020018473ffffffffffffffffffffffffffffffffffffffff16815260200183815260200180602001828103825283818151815260200191508051906020019080838360005b83811015613a3c578082015181840152602081019050613a21565b50505050905090810190601f168015613a695780820380516001836020036101000a031916815260200191505b5095505050505050604051602081830303815290604052907bffffffffffffffffffffffffffffffffffffffffffffffffffffffff19166020820180517bffffffffffffffffffffffffffffffffffffffffffffffffffffffff83818316178352505050506040518060600160405280603281526020016141d4603291398773ffffffffffffffffffffffffffffffffffffffff16613edc9092919063ffffffff16565b90506000818060200190516020811015613b2657600080fd5b8101908080519060200190929190505050905063150b7a0260e01b7bffffffffffffffffffffffffffffffffffffffffffffffffffffffff1916817bffffffffffffffffffffffffffffffffffffffffffffffffffffffff191614925050505b949350505050565b6000838311158290613c3b576040517f08c379a00000000000000000000000000000000000000000000000000000000081526004018080602001828103825283818151815260200191508051906020019080838360005b83811015613c00578082015181840152602081019050613be5565b50505050905090810190601f168015613c2d5780820380516001836020036101000a031916815260200191505b509250505060405180910390fd5b5060008385039050809150509392505050565b6001816000016000828254019250508190555050565b600081600001549050919050565b600080836001016000848152602001908152602001600020541415905092915050565b60008083600101600084815260200190815260200160002054905060008114613d715760006001820390506000600186600001805490500390506000866000018281548110613ce057fe5b9060005260206000200154905080876000018481548110613cfd57fe5b9060005260206000200181905550600183018760010160008381526020019081526020016000208190555086600001805480613d3557fe5b60019003818190600052602060002001600090559055866001016000878152602001908152602001600020600090556001945050505050613d77565b60009150505b92915050565b6000613d898383613ef4565b613de2578260000182908060018154018082558091505060019003906000526020600020016000909190919091505582600001805490508360010160008481526020019081526020016000208190555060019050613de7565b600090505b92915050565b6000808460010160008581526020019081526020016000205490506000811415613e9457846000016040518060400160405280868152602001858152509080600181540180825580915050600190039060005260206000209060020201600090919091909150600082015181600001556020820151816001015550508460000180549050856001016000868152602001908152602001600020819055506001915050613ec2565b82856000016001830381548110613ea757fe5b90600052602060002090600202016001018190555060009150505b9392505050565b600080823b905060008111915050919050565b6060613eeb8484600085613f17565b90509392505050565b600080836001016000848152602001908152602001600020541415905092915050565b606082471015613f72576040517f08c379a00000000000000000000000000000000000000000000000000000000081526004018080602001828103825260268152602001806142756026913960400191505060405180910390fd5b613f7b85613ec9565b613fed576040517f08c379a000000000000000000000000000000000000000000000000000000000815260040180806020018281038252601d8152602001807f416464726573733a2063616c6c20746f206e6f6e2d636f6e747261637400000081525060200191505060405180910390fd5b600060608673ffffffffffffffffffffffffffffffffffffffff1685876040518082805190602001908083835b6020831061403d578051825260208201915060208101905060208303925061401a565b6001836020036101000a03801982511681845116808217855250505050505090500191505060006040518083038185875af1925050503d806000811461409f576040519150601f19603f3d011682016040523d82523d6000602084013e6140a4565b606091505b50915091506140b48282866140c0565b92505050949350505050565b606083156140d057829050614185565b6000835111156140e35782518084602001fd5b816040517f08c379a00000000000000000000000000000000000000000000000000000000081526004018080602001828103825283818151815260200191508051906020019080838360005b8381101561414a57808201518184015260208101905061412f565b50505050905090810190601f1680156141775780820380516001836020036101000a031916815260200191505b509250505060405180910390fd5b939250505056fe456e756d657261626c655365743a20696e646578206f7574206f6620626f756e647353747564656e74206d757374206e6f7420626520612070656e64696e672073747564656e744552433732313a207472616e7366657220746f206e6f6e20455243373231526563656976657220696d706c656d656e7465724f776e61626c653a206e6577206f776e657220697320746865207a65726f20616464726573734552433732313a207472616e7366657220746f20746865207a65726f206164647265737353747564656e74206d75737420686176652073657420746869732073757065727669736f72416464726573733a20696e73756666696369656e742062616c616e636520666f722063616c6c4552433732313a206f70657261746f7220717565727920666f72206e6f6e6578697374656e7420746f6b656e4552433732313a20617070726f76652063616c6c6572206973206e6f74206f776e6572206e6f7220617070726f76656420666f7220616c6c4552433732313a2062616c616e636520717565727920666f7220746865207a65726f20616464726573734552433732313a206f776e657220717565727920666f72206e6f6e6578697374656e7420746f6b656e456e756d657261626c654d61703a20696e646578206f7574206f6620626f756e647353747564656e742063616e6e6f7420616c7265616479206861766520612073757065727669736f724552433732313a20617070726f76656420717565727920666f72206e6f6e6578697374656e7420746f6b656e4552433732313a207472616e73666572206f6620746f6b656e2074686174206973206e6f74206f776e4552433732314d657461646174613a2055524920717565727920666f72206e6f6e6578697374656e7420746f6b656e54686520696e646578206d7573742062652077697468696e2072616e6765206f6620746865206c6973744552433732313a20617070726f76616c20746f2063757272656e74206f776e65724552433732313a207472616e736665722063616c6c6572206973206e6f74206f776e6572206e6f7220617070726f766564a2646970667358221220619addea1798853214e0734ded9479461060fe278a07a07710c54b5b8f37d7a164736f6c634300070000334f776e61626c653a206e6577206f776e657220697320746865207a65726f2061646472657373",
  "immutableReferences": {},
  "source": "pragma solidity ^0.7.0;\n\nimport \"@openzeppelin/contracts/math/SafeMath.sol\";\nimport \"@openzeppelin/contracts/access/Ownable.sol\";\nimport \"@openzeppelin/contracts/token/ERC721/ERC721.sol\";\nimport \"@openzeppelin/contracts/utils/Counters.sol\";\nimport \"./StudentAndSup.sol\";\nimport \"./utils/RArrUint256.sol\";\n\ncontract StudentColl is ERC721, Ownable, StudentAndSup {\n    using SafeMath for uint256;\n    using SafeMath for uint256;\n    using Counters for Counters.Counter;\n    using RArrUint256 for uint256[];\n\n    Counters.Counter private _tokenIds;\n\n    mapping(address => uint256[]) internal pendingCollectibleIds;\n\n    /// @dev the clock in time for an account on a given day\n    mapping(address => uint256) public clock_in_times;\n\n    /// @dev check the last clock out day for working. Used to ensure that only one clock out is done per day\n    mapping(address => uint16) private last_clock_in_day;\n\n    modifier _once_per_day() {\n        require(\n            uint16(block.timestamp.div(1 days)) > last_clock_in_day[msg.sender]\n        );\n        _;\n    }\n\n    event PayoutMadeEvent(address indexed _to, uint256 tokId);\n    event ClockInTimeEvent(address indexed user, uint256 timestamp);\n    event ClockOutTimeEvent(address indexed user, uint256 timestamp);\n\n    constructor() ERC721(\"StudentColl\", \"STU\") StudentAndSup() {\n        transferOwnership(msg.sender);\n    }\n\n    function getPendingCollectibles(address student) view external returns(uint256[] memory) {\n        return pendingCollectibleIds[student];\n    }\n\n    /// @dev a user clocks in their start time\n    function clockStartTime() public _once_per_day _is_student {\n        clock_in_times[msg.sender] = block.timestamp;\n        last_clock_in_day[msg.sender] = uint16(block.timestamp.div(1 days));\n        emit ClockInTimeEvent(msg.sender, block.timestamp);\n    }\n\n    // Not exact, it is off by a few minutes?\n    function clockEndTime() public _is_student {\n        uint256 end_time = block.timestamp;\n        require(end_time >= clock_in_times[msg.sender]);\n        if (end_time.sub(clock_in_times[msg.sender]) <= 1 hours) {\n            // Payout one full coin\n            _payout(msg.sender);\n        }\n        emit ClockOutTimeEvent(msg.sender, block.timestamp);\n    }\n\n    function _payout(address _to) private _is_student {\n        _tokenIds.increment();\n        uint256 newTokId = _tokenIds.current();\n        pendingCollectibleIds[_to].push(newTokId);\n        emit PayoutMadeEvent(_to, newTokId);\n    }\n\n    function removeFromPending(address student, uint256 tokInd) internal {\n        require(\n            0 <= tokInd && tokInd < pendingCollectibleIds[student].length,\n            \"The token index must be within range of the student's pending ids array\"\n        );\n        pendingCollectibleIds[student].removeInd(tokInd);\n    }\n}\n",
  "sourcePath": "/home/lev/code/blockchain/eth/evie-timer/contracts/StudentColl.sol",
  "compiler": {
    "name": "solc",
    "version": "0.7.0+commit.9e61f92b.Emscripten.clang"
  },
  "schemaVersion": "3.3.3",
  "updatedAt": "2021-01-19T15:23:09.288Z",
  "devdoc": {
    "kind": "dev",
    "methods": {
      "approve(address,uint256)": {
        "details": "See {IERC721-approve}."
      },
      "balanceOf(address)": {
        "details": "See {IERC721-balanceOf}."
      },
      "baseURI()": {
        "details": "Returns the base URI set via {_setBaseURI}. This will be automatically added as a prefix in {tokenURI} to each token's URI, or to the token ID if no specific URI is set for that token ID."
      },
      "clockStartTime()": {
        "details": "a user clocks in their start time"
      },
      "createPotentialStudent(address)": {
        "details": "msg.sender is the student's address",
        "params": {
          "supervisor": "- The student's desired supervisor"
        }
      },
      "getApproved(uint256)": {
        "details": "See {IERC721-getApproved}."
      },
      "isApprovedForAll(address,address)": {
        "details": "See {IERC721-isApprovedForAll}."
      },
      "name()": {
        "details": "See {IERC721Metadata-name}."
      },
      "owner()": {
        "details": "Returns the address of the current owner."
      },
      "ownerOf(uint256)": {
        "details": "See {IERC721-ownerOf}."
      },
      "renounceOwnership()": {
        "details": "Leaves the contract without owner. It will not be possible to call `onlyOwner` functions anymore. Can only be called by the current owner. NOTE: Renouncing ownership will leave the contract without an owner, thereby removing any functionality that is only available to the owner."
      },
      "safeTransferFrom(address,address,uint256)": {
        "details": "See {IERC721-safeTransferFrom}."
      },
      "safeTransferFrom(address,address,uint256,bytes)": {
        "details": "See {IERC721-safeTransferFrom}."
      },
      "setApprovalForAll(address,bool)": {
        "details": "See {IERC721-setApprovalForAll}."
      },
      "studentStatus(address)": {
        "details": "get whether the student is a pending potential student, initialized, or nothing at all "
      },
      "supportsInterface(bytes4)": {
        "details": "See {IERC165-supportsInterface}. Time complexity O(1), guaranteed to always use less than 30 000 gas."
      },
      "symbol()": {
        "details": "See {IERC721Metadata-symbol}."
      },
      "tokenByIndex(uint256)": {
        "details": "See {IERC721Enumerable-tokenByIndex}."
      },
      "tokenOfOwnerByIndex(address,uint256)": {
        "details": "See {IERC721Enumerable-tokenOfOwnerByIndex}."
      },
      "tokenURI(uint256)": {
        "details": "See {IERC721Metadata-tokenURI}."
      },
      "totalSupply()": {
        "details": "See {IERC721Enumerable-totalSupply}."
      },
      "transferFrom(address,address,uint256)": {
        "details": "See {IERC721-transferFrom}."
      },
      "transferOwnership(address)": {
        "details": "Transfers ownership of the contract to a new account (`newOwner`). Can only be called by the current owner."
      }
    },
    "stateVariables": {
      "clock_in_times": {
        "details": "the clock in time for an account on a given day"
      },
      "last_clock_in_day": {
        "details": "check the last clock out day for working. Used to ensure that only one clock out is done per day"
      }
    },
    "version": 1
  },
  "userdoc": {
    "kind": "user",
    "methods": {},
    "version": 1
  }
}